:100000000C9434000C9446000C9446000C9446006A
:100010000C9446000C9446000C9446000C94460048
:100020000C9446000C9446000C9446000C94460038
:100030000C9446000C9448000C9446000C94460026
:100040000C9446000C9446000C9446000C94460018
:100050000C9446000C9446000C9446000C94460008
:100060000C9446000C94460011241FBECFEFD8E03C
:10007000DEBFCDBF21E0A0E0B1E001C01D92A234FF
:10008000B207E1F70E945F000C94BA000C940000E4
:100090001F920F920FB60F9211248F939F9380910E
:1000A000400190914101019690934101809340015C
:1000B0009F918F910F900FBE0F901F90189587B151
:1000C0008F6387B98FEF8AB984B988B18C6388B997
:1000D00088B18C7F88B9F8941092800010928100CA
:1000E00080916F00816080936F00809181008360B8
:1000F0008093810078941092C50081E08093C400C1
:100100008091C00082608093C00086E08093C2002E
:1001100088E18093C10045988FE39CE90197F1F74E
:1001200000C00000459A8FE39CE90197F1F700C0F9
:10013000000080918400909185008BE620918400DE
:100140003091850020918400309185009091C0000D
:1001500095FFFCCF8093C600E0E0F1E09091C000F5
:1001600097FFFCCF9091C600919391E0E034F9079E
:08017000A9F7E4CFF894FFCFDA
:00000001FF
