:10000000B3C00000DAC00000D8C00000D6C00000B5
:10001000D4C00000D2C00000D0C00000CEC000009C
:10002000CCC00000CAC0000056C70000D1C7000005
:10003000C4C00000C2C00000C0C00000BEC00000BC
:10004000BCC00000BAC00000B8C00000B6C00000CC
:10005000B4C00000B2C00000B0C000009BC60000E9
:10006000ACC00000AAC00000A8C00000A6C00000EC
:10007000A4C00000A2C00000A0C000009EC00000FC
:100080009CC000009AC0000098C0000096C000000C
:1000900094C0000092C0000000010000490112005D
:1000A00002000006014300030000020104010309ED
:1000B00004E8001802030904D0001603030904C26F
:1000C000000C0C0331003200330034003500000016
:1000D00016035500530042002000530065007200D3
:1000E000690061006C0000001803540065006500A1
:1000F0006E00730079006400750069006E006F0087
:1001000000000403090409024300020100C032098F
:100110000400000102020100052400100105240171
:1001200000010424020605240600010705820308D5
:10013000004009040100020A000000070503024014
:1001400000000705840240000012010002020000C6
:1001500020C01683040001010203010001C1020155
:10016000803601813600C10B11241FBECFEFD0E2D3
:10017000DEBFCDBF12E0A0E0B1E0E2EBFEE100E0C7
:100180000BBF02C007900D92AA30B107D9F72EE13C
:10019000AAE0B2E001C01D92A03BB207E1F710E077
:1001A000C4EBD0E004C02197FE010E945C0CC33B6D
:1001B000D107C9F77ED50C94570F22CFFB010190D0
:1001C0000020E9F73197AF01461B570BDC01ED9199
:1001D000FC910280F381E02D09940F931F93CF933C
:1001E000DF93EC01EBDF8C01CE0149D5800F911F2D
:1001F000DF91CF911F910F910895089580910A0288
:1002000090910B02A0910C02B0910D020197A109EF
:10021000B10980930A0290930B02A0930C02B09351
:100220000D0280910E0290910F02A0911002B091E8
:1002300011020196A11DB11D81152CE19207A105A6
:10024000B10549F080930E0290930F02A093100223
:10025000B0931102089510920E0210920F021092A4
:100260001002109211020895CF93DF931F92CDB721
:10027000DEB7E0910E02F0910F02EA5EFD4F808141
:100280008983BCDF89810F90DF91CF9108950F930F
:100290001F93CF93DF938C01CAE7DEE1CE018A572B
:1002A0009E41801791071CF4DFDF8993F7CFDF9120
:1002B000CF911F910F9108958F929F92AF92BF920D
:1002C000EF92FF920F931F93CF93DF93CDB7DEB7DB
:1002D000C054D1090FB6F894DEBF0FBECDBF8091D8
:1002E000120290911302A0911402B091150200E045
:1002F0001CE1081B190B003411050CF057C040E439
:1003000050E0BE016F5F7F4F86EA9EE10E941B0BAB
:100310007C01081719073CF5809112029091130295
:10032000A801BE016F5F7F4F8A5E9D4F0E947E0CC9
:10033000A701401B510BCA01052E000CAA0BBB0BD9
:100340008093120290931302A0931402B0931502AB
:1003500061E070E06C0F7D1F600F711F86E192E01D
:100360000E947E0C45C08090120290901302A090D3
:100370001402B0901502C4018A5E9D4FA701BE0110
:100380006F5F7F4F0E947E0CC7010F2C000CAA0BE1
:10039000BB0B880E991EAA1EBB1E80921202909261
:1003A0001302A0921402B092150222C0BC016A5E30
:1003B0007D4F40E450E086EA9EE10E941B0B7C01E9
:1003C000092E000CAA0BBB0B409112025091130294
:1003D0006091140270911502840F951FA61FB71F1C
:1003E0008093120290931302A0931402B09315020B
:1003F000C7010F2C000CAA0BBB0B40910A025091B5
:100400000B0260910C0270910D02840F951FA61FC4
:10041000B71F80930A0290930B02A0930C02B09333
:100420000D02C701C05CDF4F0FB6F894DEBF0FBEF0
:10043000CDBFDF91CF911F910F91FF90EF90BF90B3
:10044000AF909F908F9008955C9881BB5B985B9A6A
:100450005C9A0895CF93DF9300D0CDB7DEB74111FA
:1004600004C09BB19C7F9BB902C05998589A4A839B
:100470006983EADF4A816981411103C05898599A1A
:1004800003C09BB193609BB9862F0F900F90DF91B3
:10049000CF91DACF2F923F924F925F926F927F92DD
:1004A0008F929F92AF92BF92CF92DF92EF92FF9284
:1004B0000F931F93CF93DF93CDB7DEB76C970FB633
:1004C000F894DEBF0FBECDBF40E452E46FE070E0B1
:1004D00086EA9EE10E94CA0A8AB18F638AB98FEFC9
:1004E00080BB8BB18C638BB98BB18C7F8BB95D98E2
:1004F0008FE39CE90197F1F700C000005D9AAFE33C
:10050000BCE91197F1F700C000001092120210929E
:100510001302109214021092150210920E02109201
:100520000F02109210021092110210920A02109201
:100530000B0210920C0210920D0280E2EAE7FEE13B
:10054000DF011D928A95E9F786EA9EE1C0D6892BE4
:1005500009F47CC3412C512C3201812C912C540183
:10056000C12CD12C760180910A0290910B02A091AE
:100570000C02B0910D02813C9B41A105B10520F513
:1005800069D469837A838B839C8396DE8C01BFEF69
:10059000CB1ADB0AEB0AFB0A5DD4DC01CB01298113
:1005A0003A814B815C81821B930BA40BB50B880EA7
:1005B000991EAA1EBB1EC801110FAA0BBB0B480E29
:1005C000591E6A1E7B1ECFCFC301B201A70196013F
:1005D0000E943A0C5F934F933F932F93C501B40150
:1005E000A70196010E943A0C5F934F933F932F937C
:1005F000FF92EF92DF92CF9287E091E09F938F93EB
:1006000066E1E62E6EE1F62EFF92EF920E948E0CCE
:10061000B70186EA9EE1D2DD88E090E038DE0FB6D1
:10062000F894DEBF0FBECDBF80917A1E813609F0EF
:1006300042C080917B1E833609F03DC080917C1EB4
:100640008B36C9F580917D1E8E36A9F58091801E6E
:1006500090E0A0E0B0E0BA2FA92F982F8827209132
:10066000811E822B20917F1EA22B20917E1EAC0129
:10067000BD01722B4D835E836F8378877F936F9369
:100680005F934F9387E391E09F938F93FF92EF9255
:100690000E948E0CB70186EA9EE19FDD84E090E027
:1006A000F6DD0FB6F894DEBF0FBECDBF80917A1E87
:1006B000863521F00FC066E471E00EC080917B1E8C
:1006C000873641F480917C1E8D3621F480917D1E09
:1006D000803219F165E571E086E19EE10E94870CA8
:1006E00066E17EE186EA9EE16C960FB6F894DEBF85
:1006F0000FBECDBFDF91CF911F910F91FF90EF9073
:10070000DF90CF90BF90AF909F908F907F906F9031
:100710005F904F903F902F9060CD63E671E086E14F
:100720009EE10E94870C66E17EE186EA9EE155DD4E
:1007300084E190E0ACDD84E090E0A9DD10917A1EC8
:1007400020907B1E30907C1E00917D1E0F933F9267
:100750002F921F9381E791E09F938F93FF92EF92E7
:100760000E948E0C66E17EE186EA9EE136DD84E23F
:1007700090E08DDD0FB6F89480919B1E90919C1EA9
:10078000A0919D1EB0919E1E0FBE898F9A8FAB8F38
:10079000BC8F60D3698B7A8B8B8B9C8B0FB6F89454
:1007A000DEBF0FBECDBFC12CD12C760140E4442E5C
:1007B000512C612C712C1D861E861F86188A198665
:1007C0001A861B861C8619821A821B821C826D81E6
:1007D0007E818F819885461657066806790608F04F
:1007E000BEC153014201BFEF8B1A9B0AAB0ABB0A81
:1007F00080910A0290910B02A0910C02B0910D021F
:100800000697A105B10598F457DD181619067CF076
:10081000BF92AF929F928F928EE791E09F938F93BA
:1008200086E19EE19F938F930E948E0C53C1C11469
:10083000D104E104F10499F12D853E854F85588955
:100840002C0D3D1D4E1D5F1D2D873E874F87588BFC
:10085000A7E1B0E00E94650C29893A894B895C893F
:10086000620F731F841F951FA0D76B017C01F2D20A
:100870009CD79B01AC01C701B601F8D718167CF4D0
:1008800080910A0290910B02A0910C02B0910D028E
:10089000813C9B41A105B10550F70EDDE8CFE09109
:1008A0000E02F0910F02EA5EFD4F808180937A1E66
:1008B000A5DC49815A816B817C814F5F5F4F6F4F0F
:1008C0007F4F49835A836B837C83C4D26D8B7E8B2D
:1008D0008F8B988F80917A1E823609F420C108F0A0
:1008E00048C0823509F493C0C0F48F3409F47DC048
:1008F000803509F0DEC0E0910E02F0910F02EA5E51
:10090000FD4F808180937B1E79DC5301420182E0A0
:10091000880E911CA11CB11C9BC0833509F49CC09E
:10092000813609F0C6C0E0910E02F0910F02EA5E36
:10093000FD4F808180937B1E61DCE0910E02F0917F
:100940000F02EA5EFD4F808180937C1E57DCC090D1
:100950007C1ED12CDC2CCC2480917B1EC82AE12C5F
:10096000F12C5301420193E0890E911CA11CB11C92
:10097000DCC08038B0F4803708F090C0833671F165
:10098000863609F096C06AE871E086E19EE1BFD73D
:1009900066E17EE186EA9EE120DC86EA9EE1F0D611
:1009A00057C0803908F085C0E0910E02F0910F0227
:1009B000EA5EFD4F40E060818AE24CDD1FDC809101
:1009C0007A1E8F70C82ED12CE12CF12C53014201DC
:1009D000B2E08B0E911CA11CB11CA7C032E7C32E44
:1009E00033E0D32EE12CF12CA0C0E0910E02F09167
:1009F0000F02EA5EFD4F808180937B1EFFDB530177
:100A0000420152E0850E911CA11CB11C21C0E09155
:100A10000E02F0910F02EA5EFD4F808180937B1EF3
:100A2000EDDBE0910E02F0910F02EA5EFD4F808156
:100A300080937C1EE3DB40E060917C1E80917B1EF6
:100A400009DD5301420163E0860E911CA11CB11C1B
:100A5000C12CD12C760169C0E0910E02F0910F02F9
:100A6000EA5EFD4F808180937B1EC8DBE0910E0221
:100A7000F0910F02EA5EFD4F808180937C1EBEDB09
:100A800041E060917C1E80917B1EE4DC53014201B9
:100A900073E0870E911CA11CB11CDACF8F70C82E99
:100AA000D12CAFEFCA1ADA0A0D2C000CEE08FF08A1
:100AB0003CC0BF92AF929F928F921F928F931F92D2
:100AC0008F9386E991E09F938F9386E19EE19F93B8
:100AD0008F9324D766E17EE186EA9EE17EDB0FB646
:100AE000F894DEBF0FBECDBF86EA9EE16C960FB6CE
:100AF000F894DEBF0FBECDBFDF91CF911F910F9154
:100B0000FF90EF90DF90CF90BF90AF909F908F902D
:100B10007F906F905F904F903F902F9031C69FEDE8
:100B2000C92E92E0D92EE12CF12C94D1DC01CB011D
:100B30002D893E894F89588D821B930BA40BB50BD1
:100B400049855A856B857C85480F591F6A1F7B1F15
:100B500049875A876B877C872401350138CE6985A0
:100B60007A858B859C8529813A814B815C8182D6EF
:100B70005F934F933F932F937C817F938B818F93D0
:100B80009A819F93A981AF938EEB91E09F938F936E
:100B900086E1E82E8EE1F82EFF92EF92BFD6B701E4
:100BA00086EA9EE10BDB0FB6F89480919B1E909134
:100BB0009C1EA0919D1EB0919E1E0FBEBC01CD013A
:100BC000298D3A8D4B8D5C8D621B730B840B950BBD
:100BD00028EE33E040E050E04DD65F934F933F93D3
:100BE0002F93612F722D832D902F24E43CEA40E057
:100BF00050E040D65F934F933F932F938CED91E05D
:100C00009F938F93FF92EF9289D60FB6F894DEBF31
:100C10000FBECDBFB70186EA9EE16C960FB6F89481
:100C2000DEBF0FBECDBFDF91CF911F910F91FF901F
:100C3000EF90DF90CF90BF90AF909F908F907F907C
:100C40006F905F904F903F902F90B8CA6C960FB600
:100C5000F894DEBF0FBECDBFDF91CF911F910F91F2
:100C6000FF90EF90DF90CF90BF90AF909F908F90CC
:100C70007F906F905F904F903F902F900895CF930B
:100C8000DF9300D0CDB7DEB72DE029832AE02A8399
:100C9000DC01ED91FC910280F381E02D42E050E017
:100CA000BE016F5F7F4F09950F900F90DF91CF913D
:100CB000089524D0A2DAEEDBFECF1DBA10926800B0
:100CC0001CBC10BE1FBA10927A0010926E001092D7
:100CD0006F0010927000109271001092C900109273
:100CE000BC0011B814B817B81AB81DB810BA12B8A9
:100CF00015B818B81BB81EB811BA0895F894E1E6F3
:100D0000F0E020E82083108283E084BD85BDEEE61C
:100D1000F0E080818160808391E09093800082E0A8
:100D2000809381009093B0008093B10090939000E5
:100D30008093910086E880937A0020937B00109244
:100D40007E00A7D078940895F89484B7877F84BFF5
:100D5000809160008061809360001092600080E26A
:100D60009EE40197F1F781E08093E00080E28093B8
:100D7000D80080E69AEE0197F1F79FDF0C9400FE11
:100D8000FFCFF8949ADF80E69AEE0197F1F70C9482
:100D90000000FFCF8F938FB78F9380919A1E8D5F46
:100DA0008D37D0F480939A1E80919B1E8F5F809325
:100DB0009B1ED8F080919C1E8F4F80939C1EA8F0A4
:100DC00080919D1E8F4F80939D1E78F080919E1E76
:100DD0008F4F80939E1E09C08D5780939A1E8091DD
:100DE0009B1E8E5F80939B1E28F780919F1E8C5FB9
:100DF00080939F1E58F08091A01E8F4F8093A01E5D
:100E000028F08091A11E8F4F8093A11E8F918FBFDC
:100E10008F911895CF92DF92EF92FF926B017C0138
:100E200019D09B01C114D104E104F10471F012D076
:100E3000621B730B683E7340A8F381E0C81AD108A7
:100E4000E108F10828513C4FEDCFFF90EF90DF9083
:100E5000CF9008950FB6F89466B515B270919F1EA5
:100E60008091A01E9091A11E0FBE10FE05C06F3F85
:100E700019F07C5F8F4F9F4F11240024660F001CD8
:100E8000660F001C702908958091E80080FFFCCF58
:100E900008958091D80087FF02C085FF1BC081E8BC
:100EA0008093D70080EA8093D80086E189BD09B499
:100EB00000FEFDCF80E98093D8001092E0001092F0
:100EC000B21E1092B11E1092B01E1092E1008DE081
:100ED0008093E20008951F920F920FB60F92112493
:100EE0000BB60F922F933F934F935F936F937F9324
:100EF0008F939F93AF93BF93EF93FF939091E100F4
:100F00001092E10093FF11C01092E90081E08093FC
:100F1000EB001092EC0082E28093ED0088E0809379
:100F2000F0001092B21E1092B01E92FF1DC0809170
:100F3000B21E8823C9F08091A51E882359F08150E4
:100F40008093A51E811106C084E08093E9008AE3A6
:100F50008093E8008091A41E882331F08150809313
:100F6000A41E811101C0F0DE90FF0CC080E18093CF
:100F7000E2001092B21E81E08093B11E80EA80935D
:100F8000D80019BC8091B11E882379F094FF0DC060
:100F900086E189BD09B400FEFDCF80E98093D800C9
:100FA0008DE08093E2001092B11EFF91EF91BF910E
:100FB000AF919F918F917F916F915F914F913F91F1
:100FC0002F910F900BBE0F900FBE0F901F90189592
:100FD0001F920F920FB60F9211240BB60F92EF9241
:100FE000FF920F931F932F933F934F935F936F93B2
:100FF0007F938F939F93AF93BF93CF93EF93FF9381
:101000001092E9008091E80083FF30C1C091F100A7
:101010008091F100E090F100F090F1000091F1007A
:101020001091F1002091F1003091F10092EF909336
:10103000E800863009F03FC086E0E8E9F0E045913D
:1010400055914E155F0511F0359615C04591559196
:101050004017510711F033960EC045915591849178
:101060002F3F310519F010F02FEF30E0281708F46A
:10107000822F3EEF08C0815011F7F8C0891B3093D2
:10108000E8008823A9F09091E800292F2570D9F372
:1010900092FDEFC0982F813208F090E2292F222391
:1010A00069F3FA0145914093F100AF012150F7CF68
:1010B000903249F3DEC0853049F48EEF8093E8002A
:1010C000E3DE8E2D80688093E300D3C0893001F584
:1010D000C111CCC0E092B21E1092B01E1092A51E9B
:1010E0008EEF8093E80081E0EBE5F1E08093E9008A
:1010F00095919093EB00992331F095919093EC00AA
:1011000095919093ED008F5F853081F78EE1A9C0B6
:10111000883049F4C03809F0A9C0B6DE8091B21E0B
:101120008093F1007DC0813279F4C13A09F09EC00C
:10113000ABDEE0E0F1E087E08E0F90819093F1006C
:1011400031968E13FACF6CC0803209F047C0C1329D
:1011500009F08CC08091E80082FFFCCFE0E0F1E074
:1011600087E08E0F9091F100908331968E13FACF25
:101170008BEF8093E8008EEF8093E80030910001C0
:1011800040910101809102012091030190E0A0E0D3
:10119000B0E0DC0199278827942B832BB22B86386B
:1011A0009105A105B10521F48FE08093A41E61C0D3
:1011B00086399105A105B10509F05BC084E08093F3
:1011C000E9009FEF8091EE00837039F09093E80082
:1011D0008091E80082FDFCCFF5CFD3DD823231F47F
:1011E000C13209F043C0E092B01E04C0833221F442
:1011F000C132E1F549DE14C0811116C045DEC238A6
:1012000051F40093E9008091EB0085FB882780F979
:101210001092E90001C080E08093F1001092F1008B
:101220008EEF8093E80025C0982F9D7F9130F1F4D8
:10123000C230E1F4EF28D1F40F779FEF900F963092
:10124000A8F49EEF9093E8000093E900833071F0DA
:1012500089E18093EB0081E090E001C0880F0A955E
:10126000EAF78093EA001092EA0003C081E28093DB
:10127000EB00FF91EF91CF91BF91AF919F918F9133
:101280007F916F915F914F913F912F911F910F919E
:10129000FF90EF900F900BBE0F900FBE0F901F901E
:1012A0001895CF93DF931F92CDB7DEB76983DC012A
:1012B000ED91FC910280F381E02D41E050E0BE0110
:1012C0006F5F7F4F09950F90DF91CF910895FC01DB
:1012D0008FB7F8949091B21E911102C090E010C0A7
:1012E00093E09093E9009091F200911109C0209150
:1012F000E80022FFF3CF25FDF1CF2BE62093E80095
:101300008FBF2085318537FD03C09F3F09F09F5F68
:10131000892F90E00895CF93DF93EC01888599851C
:1013200097FF09C0E881F9810680F781E02DCE01A1
:1013300009959987888788859985DF91CF91089548
:10134000FC012085318537FD07C04FEF5FEF5187E6
:101350004087C901992708959FB7F8948091B21EDC
:10136000882369F083E08093E9002BE68091E80010
:1013700085FD09C082FF03C02093E800F7CF9FBF1F
:101380008FEF9FEF08958091F1002091E80025FDF7
:1013900003C02BE62093E8009FBF90E00895DF9202
:1013A000EF92FF920F931F93CF93DF938C01EB018A
:1013B0008091B21E882371F07FB7F89484E0809307
:1013C000E9008091A31E882369F08091E80085FDE3
:1013D00007C07FBF81E0F801828320E030E0D1C008
:1013E0001092A31E20E030E064E080E4F82EA1EF2C
:1013F000B0E09AE3E92EE3E0DE2E4115510509F451
:10140000BFC08091E400815F9091E80095FD16C017
:101410007FBF9091E400981304C081E08093A31EE5
:1014200005C09091B21E911104C081E0F801828341
:10143000A8C07FB7F8946093E900E6CF8091F200EE
:101440009F2D981BE92FF0E04E175F0708F4942FAB
:10145000E92FF0E04E1B5F0B2E0F3F1FE0E4E91B6E
:10146000E03428F4EE0FFF27E85CF54F099480C0C4
:1014700099919C9399919C9399919C9399919C9308
:1014800099919C9399919C9399919C9399919C93F8
:1014900099919C9399919C9399919C9399919C93E8
:1014A00099919C9399919C9399919C9399919C93D8
:1014B00099919C9399919C9399919C9399919C93C8
:1014C00099919C9399919C9399919C9399919C93B8
:1014D00099919C9399919C9399919C9399919C93A8
:1014E00099919C9399919C9399919C9399919C9398
:1014F00099919C9399919C9399919C9399919C9388
:1015000099919C9399919C9399919C9399919C9377
:1015100099919C9399919C9399919C9399919C9367
:1015200099919C9399919C9399919C9399919C9357
:1015300099919C9399919C9399919C9399919C9347
:1015400099919C9399919C9399919C9399919C9337
:1015500099919C9399919C9399919C9399919C9327
:1015600099919C9399919C9399919C9399919C9317
:101570008091E80085FFE092E800D092A51E3DCF63
:101580007FBFC901DF91CF911F910F91FF90EF9025
:10159000DF9008952FEF3FEFFC013187208779DC42
:1015A0000FB6F89480919B1E90919C1EA0919D1E59
:1015B000B0919E1E0FBE9C018091B21E882329F01F
:1015C00068EC70E080E090E025CC8091B11E88232B
:1015D00001F10FB6F89480919B1E90919C1EA091F2
:1015E0009D1EB0919E1E0FBE4091B11E442389F0F6
:1015F0000FB6F89440919B1E50919C1E60919D1EC9
:1016000070919E1E0FBE481B590B4B3F510560F356
:1016100011C00FB6F89480919B1E90919C1EA091D2
:101620009D1EB0919E1E0FBE821B930B853C994060
:1016300008F4C2CF08958F929F92AF92BF92CF923B
:10164000DF92EF92FF920F931F93CF93DF93EC0102
:101650000FB6F894C0909B1ED0909C1EE0909D1EEB
:10166000F0909E1E0FBE4115510509F461C088859A
:10167000998597FD0FC0FB0180838FEF9FEF9987BE
:1016800088874150510909F455C06F5F7F4FE1E0F1
:10169000F0E002C0E0E0F0E013E00BE68FB7F89472
:1016A0009091B21E992331F01093E9009091E800D7
:1016B00092FD02C08FBF39C02091F200A22FB0E08E
:1016C0004A175B0708F4242F362FDB019A2F931B50
:1016D000921720F49091F1009D93F8CF30E0620FC3
:1016E000731F9091E80095FF0093E8008FBFE20F11
:1016F000F31F421B530B09F10FB6F89480919B1E08
:1017000090919C1EA0919D1EB0919E1E0FBE8C19A3
:101710009D09AE09BF098B809C80AD80BE80881575
:101720009905AA05BB0508F4B9CF81E08F8305C0F0
:1017300080E001C081E090E001C0CF01DF91CF9156
:101740001F910F91FF90EF90DF90CF90BF90AF90DF
:101750009F908F9008959FB7F8948091B21E882330
:1017600021F08091A51E811102C09FBF089584E0E1
:101770008093E9008AE38093E8001092A51EF5CFDC
:10178000EACFE6EAFEE18AE0DF011D928A95E9F7F9
:1017900088EE93E0A0E0B0E083839483A583B683D2
:1017A0008DEF91E0918380830895E89409C097FBC1
:1017B0003EF490958095709561957F4F8F4F9F4F28
:1017C0009923A9F0F92F96E9BB279395F69587956C
:1017D00077956795B795F111F8CFFAF4BB0F11F42F
:1017E00060FF1BC06F5F7F4F8F4F9F4F16C08823D6
:1017F00011F096E911C0772321F09EE8872F762F0C
:1018000005C0662371F096E8862F70E060E02AF04C
:101810009A95660F771F881FDAF7880F9695879538
:1018200097F90895990F0008550FAA0BE0E8FEEF0D
:1018300016161706E807F907C0F012161306E40794
:10184000F50798F0621B730B840B950B39F40A268D
:1018500061F0232B242B252B21F408950A2609F46B
:10186000A140A6958FEF811D811D0895DBDF08F44F
:101870008FEF0895A1E21A2EAA1BBB1BFD010DC01C
:10188000AA1FBB1FEE1FFF1FA217B307E407F50730
:1018900020F0A21BB30BE40BF50B661F771F881F0C
:1018A000991F1A9469F760957095809590959B01A2
:1018B000AC01BD01CF010895EE0FFF1F0024001CF5
:1018C0000BBE0790F691E02D099409D0A59F900DCD
:1018D000B49F900DA49F800D911D11240895A29F87
:1018E000B001B39FC001A39F700D811D1124911DF4
:1018F000B29F700D811D1124911D0895FB01DC0123
:1019000002C001900D9241505040D8F70895FB015C
:10191000DC0101900D920020E1F708950F931F93D1
:10192000CF93DF93CDB7DEB72E970FB6F894DEBF17
:101930000FBECDBF0D891E8986E08C831A83098373
:101940008FEF9FE79E838D83AE01475E5F4F6F8968
:10195000788DCE01019611D02F813885F801E20FE4
:10196000F31F10822E960FB6F894DEBF0FBECDBFC8
:10197000DF91CF911F910F9108952F923F924F9237
:101980005F926F927F928F929F92AF92BF92CF920F
:10199000DF92EF92FF920F931F93CF93DF93CDB718
:1019A000DEB72C970FB6F894DEBF0FBECDBF7C011B
:1019B0006B018A01FC0117821682838181FFB0C10D
:1019C000CE0101964C01F7019381F60193FD8591BB
:1019D00093FF81916F01882309F49EC1853239F408
:1019E00093FD859193FF81916F01853221F4B701B9
:1019F00090E0C7D1E8CF512C312C20E02032A0F468
:101A00008B3269F030F4803259F0833269F420610E
:101A10002CC08D3239F0803339F4216026C0226029
:101A2000246023C0286021C027FD27C030ED380F77
:101A30003A3078F426FF06C0FAE05F9E300D11249C
:101A4000532E13C08AE0389E300D1124332E2062AD
:101A50000CC08E3221F426FD5FC1206406C08C3696
:101A600011F4206802C0883641F4F60193FD859197
:101A700093FF81916F018111C1CF982F9F7D955464
:101A8000933028F40C5F1F4FFFE3F9830DC08336BA
:101A900031F0833771F0833509F057C021C0F80168
:101AA000808189830E5F1F4F44244394512C54013D
:101AB00014C03801F2E06F0E711CF801A080B180F3
:101AC00026FF03C0652D70E002C06FEF7FEFC501F8
:101AD0002C874CD12C0183012C852F77222E16C008
:101AE0003801F2E06F0E711CF801A080B18026FF72
:101AF00003C0652D70E002C06FEF7FEFC5012C873A
:101B00002AD12C012C852068222E830123FC19C0A8
:101B1000832D90E048165906A0F4B70180E290E0CA
:101B200030D13A94F5CFF50127FC859127FE8191BC
:101B30005F01B70190E025D131103A94F1E04F1ADE
:101B400051084114510479F7DEC0843611F089360A
:101B500031F5F80127FF07C060817181828193818F
:101B60000C5F1F4F08C060817181072E000C880B2D
:101B7000990B0E5F1F4F2F76722E97FF09C090951D
:101B80008095709561957F4F8F4F9F4F2068722E83
:101B90002AE030E0A4012DD1A82EA81843C0853733
:101BA00029F42F7EB22E2AE030E025C0F22FF97FF3
:101BB000BF2E8F36C1F018F4883579F0ADC080376C
:101BC00019F0883721F0A8C02F2F2061B22EB4FE63
:101BD0000DC08B2D8460B82E09C024FF0AC09F2F32
:101BE0009660B92E06C028E030E005C020E130E064
:101BF00002C020E132E0F801B7FE07C060817181C8
:101C0000828193810C5F1F4F06C06081718180E0EB
:101C100090E00E5F1F4FA401ECD0A82EA818FB2D5A
:101C2000FF777F2E76FE0BC0372D3E7FA51450F434
:101C300074FE0AC072FC08C0372D3E7E05C0BA2C67
:101C4000372D03C0BA2C01C0B52C34FF0DC0FE01E6
:101C5000EA0DF11D8081803311F4397E09C032FF15
:101C600006C0B394B39404C0832F867809F0B3946C
:101C700033FD12C030FF06C05A2CB31418F4530CB5
:101C80005B18B32CB31460F4B70180E290E03C879A
:101C900078D0B3943C85F6CFB31410F43B1801C050
:101CA000312C34FF11C0B70180E390E03C8769D04C
:101CB0003C8532FF16C031FD03C088E790E002C0CA
:101CC00088E590E0B7010CC0832F867851F031FF92
:101CD00002C08BE201C080E237FD8DE2B70190E0E7
:101CE00050D0A51430F4B70180E390E04AD05A9464
:101CF000F8CFAA94F401EA0DF11D8081B70190E0BC
:101D000040D0A110F6CF332009F45DCEB70180E2B8
:101D100090E037D03A94F7CFF7018681978102C0DF
:101D20008FEF9FEF2C960FB6F894DEBF0FBECDBF9E
:101D3000DF91CF911F910F91FF90EF90DF90CF90A7
:101D4000BF90AF909F908F907F906F905F904F90DB
:101D50003F902F900895FC01059061507040011054
:101D6000D8F7809590958E0F9F1F0895FC016150C4
:101D7000704001900110D8F7809590958E0F9F1FAD
:101D800008950F931F93CF93DF93FB01238121FDD0
:101D900003C08FEF9FEF28C022FF16C046815781F6
:101DA000248135814217530744F4A081B1819D01FC
:101DB0002F5F3F4F318320838C93268137812F5FA4
:101DC0003F4F3783268310C0EB01092F182F008463
:101DD000F185E02D0995892BE1F68E819F81019691
:101DE0009F838E83812F902FDF91CF911F910F9131
:101DF0000895FA01AA27283051F1203181F1E894A1
:101E00006F936E7F6E5F7F4F8F4F9F4FAF4FB1E0ED
:101E10003ED0B4E03CD0670F781F891F9A1FA11DE8
:101E2000680F791F8A1F911DA11D6A0F711D811DE9
:101E3000911DA11D20D009F468943F912AE0269FAE
:101E400011243019305D3193DEF6CF010895462F0D
:101E50004770405D4193B3E00FD0C9F7F6CF462FEE
:101E60004F70405D4A3318F0495D31FD4052419357
:101E700002D0A9F7EACFB4E0A69597958795779514
:101E80006795BA95C9F700976105710508959B019B
:101E9000AC010A2E06945795479537952795BA9524
:101EA000C9F7620F731F841F951FA01D0895F89432
:021EB000FFCF62
:101EB20000E1000000000874696D65733A20256C2A
:101EC2007520617665726167652074696D653A2077
:101ED200256C752061766572616765207265616443
:101EE2003A20256C750A0066696C652073697A650B
:101EF2003A20256C64006E6F2061636B202D3E20BA
:101F020065786974006964656E74206661696C65E0
:101F12006421006964656E74207061737365642165
:101F22000073616D706C65733A20256C7500737473
:101F3200617276656440256C6400656E64206F662C
:101F4200206461746100756E62656B616E6E7465AA
:101F520073207A65696368656E3A20307825782047
:101F62002F20256420706F733A20256C64007469F9
:101F72006D65733A20256C752061766572616765BF
:101F82002074696D653A20256C750A0063616C6383
:101F92002074696D653A20256C75207265616C54F8
:101FA200696D653A20256C7500000000005109CF6B
:0A1FB200096709A0098B09C00B00A4
:00000001FF
