:10000000B3C00000DAC00000D8C00000D6C00000B5
:10001000D4C00000D2C00000D0C00000CEC000009C
:10002000CCC00000CAC00000E5C700000C947708EF
:10003000C4C00000C2C00000C0C00000BEC00000BC
:10004000BCC00000BAC00000B8C00000B6C00000CC
:10005000B4C00000B2C00000B0C000002AC7000059
:10006000ACC00000AAC00000A8C00000A6C00000EC
:10007000A4C00000A2C00000A0C000009EC00000FC
:100080009CC000009AC0000098C0000096C000000C
:1000900094C0000092C0000000010000490112005D
:1000A00002000006014300030000020104010309ED
:1000B00004E8001802030904D0001603030904C26F
:1000C000000C0C0331003200330034003500000016
:1000D00016035500530042002000530065007200D3
:1000E000690061006C0000001803540065006500A1
:1000F0006E00730079006400750069006E006F0087
:1001000000000403090409024300020100C032098F
:100110000400000102020100052400100105240171
:1001200000010424020605240600010705820308D5
:10013000004009040100020A000000070503024014
:1001400000000705840240000012010002020000C6
:1001500020C01683040001010203010001C1020155
:10016000803601813600500C11241FBECFEFD0E243
:10017000DEBFCDBF12E0A0E0B1E0E2E0F2E200E0DD
:100180000BBF02C007900D92AE30B107D9F72EE138
:10019000AEE0B2E001C01D92A43BB207E1F710E06F
:1001A000C4EBD0E004C02197FE010E94040EC33BC3
:1001B000D107C9F70DD60C94FF1022CFFB01019097
:1001C0000020E9F73197AF01461B570BDC01ED9199
:1001D000FC910280F381E02D09940F931F93CF933C
:1001E000DF93EC01EBDF8C01CE01D8D5800F911F9E
:1001F000DF91CF911F910F910895089580910E0284
:1002000090910F02A0911002B09111020197A109E3
:10021000B10980930E0290930F02A0931002B09345
:1002200011028091120290911302A0911402B091D8
:1002300015020196A11DB11D81152CE19207A105A2
:10024000B10549F08093120290931302A093140217
:10025000B093150208951092120210921302109298
:100260001402109215020895CF93DF931F92CDB719
:10027000DEB7E0911202F0911302E65EFD4F80813D
:100280008983BCDF89810F90DF91CF9108950F930F
:100290001F93CF93DF938C01CEE7DEE1CE018E5723
:1002A0009E41801791071CF4DFDF8993F7CFDF9120
:1002B000CF911F910F9108958F929F92AF92BF920D
:1002C000EF92FF920F931F93CF93DF93CDB7DEB7DB
:1002D000C054D1090FB6F894DEBF0FBECDBF8091D8
:1002E000160290911702A0911802B091190200E035
:1002F0001CE1081B190B083011050CF057C048E031
:1003000050E0BE016F5F7F4F8AEA9EE10E94AA0B18
:100310007C01081719073CF580911602909117028D
:10032000A801BE016F5F7F4F865E9D4F0E94260E23
:10033000A701401B510BCA01052E000CAA0BBB0BD9
:100340008093160290931702A0931802B09319029B
:1003500061E070E06C0F7D1F600F711F8AE192E019
:100360000E94260E45C08090160290901702A09021
:100370001802B0901902C401865E9D4FA701BE010C
:100380006F5F7F4F0E94260EC7010F2C000CAA0B37
:10039000BB0B880E991EAA1EBB1E8092160290925D
:1003A0001702A0921802B092190222C0BC01665E28
:1003B0007D4F48E050E08AEA9EE10E94AA0B7C0152
:1003C000092E000CAA0BBB0B40911602509117028C
:1003D0006091180270911902840F951FA61FB71F14
:1003E0008093160290931702A0931802B0931902FB
:1003F000C7010F2C000CAA0BBB0B40910E025091B1
:100400000F026091100270911102840F951FA61FB8
:10041000B71F80930E0290930F02A0931002B09327
:100420001102C701C05CDF4F0FB6F894DEBF0FBEEC
:10043000CDBFDF91CF911F910F91FF90EF90BF90B3
:10044000AF909F908F9008955C9881BB5B985B9A6A
:100450005C9A0895CF93DF9300D0CDB7DEB74111FA
:1004600004C09BB19C7F9BB902C05998589A4A839B
:100470006983EADF4A816981411103C05898599A1A
:1004800003C09BB193609BB9862F0F900F90DF91B3
:10049000CF91DACF2F923F924F925F926F927F92DD
:1004A0008F929F92AF92BF92CF92DF92EF92FF9284
:1004B0000F931F93CF93DF93CDB7DEB7AA970FB6F5
:1004C000F894DEBF0FBECDBF40E452E46FE070E0B1
:1004D0008AEA9EE10E94590B8AB18F638AB98FEF35
:1004E00080BB8BB18C638BB98BB18C7F8BB95D98E2
:1004F0008FE39CE90197F1F700C000005D9AAFE33C
:10050000BCE91197F1F700C000001092160210929A
:1005100017021092180210921902109212021092F1
:100520001302109214021092150210920E021092F1
:100530000F02109210021092110280E2EEE7FEE12B
:10054000DF011D928A95E9F78AEA9EE14FD7892B50
:1005500009F40BC4412C512C3201812C912C5401F3
:10056000C12CD12C760180910E0290910F02A091A6
:100570001002B0911102893F9B41A105B10520F500
:10058000F8D469837A838B839C8396DE8C01BFEFDA
:10059000CB1ADB0AEB0AFB0AECD4DC01CB01298184
:1005A0003A814B815C81821B930BA40BB50B880EA7
:1005B000991EAA1EBB1EC801110FAA0BBB0B480E29
:1005C000591E6A1E7B1ECFCFC301B201A70196013F
:1005D0000E94E20D5F934F933F932F93C501B401A7
:1005E000A70196010E94E20D5F934F933F932F93D3
:1005F000FF92EF92DF92CF928EE891E09F938F93DC
:100600006AE1E62E6EE1F62EFF92EF920E94360E20
:10061000B7018AEA9EE1D2DD88E090E038DE0FB6CD
:10062000F894DEBF0FBECDBF80917E1E813609F0EB
:1006300042C080917F1E833609F03DC08091801EAC
:100640008B36C9F58091811E8E36A9F58091841E66
:1006500090E0A0E0B0E0BA2FA92F982F8827209132
:10066000851E822B2091831EA22B2091821EAC011D
:10067000BD01722B49875A876B877C877F936F9365
:100680005F934F9387E091E09F938F93FF92EF9258
:100690000E94360EB7018AEA9EE19FDD84E090E079
:1006A000F6DD0FB6F894DEBF0FBECDBF80917E1E83
:1006B000863521F00FC066E171E00EC080917F1E8B
:1006C000873641F48091801E8D3621F48091811E01
:1006D000803219F165E271E08AE19EE10E942F0EFD
:1006E0006AE17EE18AEA9EE1AA960FB6F894DEBF3F
:1006F0000FBECDBFDF91CF911F910F91FF90EF9073
:10070000DF90CF90BF90AF909F908F907F906F9031
:100710005F904F903F902F9060CD63E371E08AE14E
:100720009EE10E942F0E6AE17EE18AEA9EE155DD9C
:1007300084E190E0ACDD84E090E0A9DD70917E1E64
:1007400079A780917F1E8AA71091801E0091811E3B
:100750000F931F938F937F9381E491E09F938F93E7
:10076000FF92EF920E94360E6AE17EE18AEA9EE1F4
:1007700034DD84E290E08BDD0FB6F89420919F1E6B
:100780003091A01E4091A11E5091A21E0FBE2DA31C
:100790003EA34FA358A7EDD369A37AA38BA39CA331
:1007A0000FB6F894DEBF0FBECDBFC12CD12C7601A1
:1007B00040E4442E512C612C712C198E1A8E1B8E04
:1007C0001C8E1D8A1E8A1F8A188E198A1A8A1B8AF5
:1007D0001C8A1D861E861F86188A19821A821B8211
:1007E0001C821D821E821F82188669857A858B85F0
:1007F0009C85461657066806790608F016C253010E
:1008000042015FEF851A950AA50AB50A80910E028A
:1008100090910F02A0911002B09111020697A105CC
:10082000B105F8F449DD18161906DCF080910E02C6
:1008300090910F02A0911002B0911102892B8A2B86
:100840008B2B79F4BF92AF929F928F928EE491E0BE
:100850009F938F938AE19EE19F938F930E94360E20
:100860009FC1C114D104E104F10409F47CC08D8955
:100870009E89AF89B88D8C0D9D1DAE1DBF1D8D8BC2
:100880009E8BAF8BB88F69A17AA18BA19CA10E948E
:10089000C90C6B017C016D897E898F89988D0E94BE
:1008A000C90C29EE37E645EB51E40E947F0D9B0110
:1008B000AC01C701B6010E94650C6B017C0159D3E4
:1008C0000E94C90C9B01AC01C701B6010E947B0DBF
:1008D00018160CF048C080910E0290910F02A09162
:1008E0001002B0911102893F9B41A105B10538F773
:1008F00040D36D8F7E8F8F8F98A3DEDC1C01298102
:100900003A814B815C812F5F3F4F4F4F5F4F29836F
:100910003A834B835C832DD3DC01CB012D8D3E8D3F
:100920004F8D58A1821B930BA40BB50B49895A8993
:100930006B897C89480F591F6A1F7B1F498B5A8B13
:100940006B8B7C8BA101330C660B770B898D9A8D99
:10095000AB8DBC8D840F951FA61FB71F898F9A8FF3
:10096000AB8FBC8FACCFE0911202F0911302E65E28
:10097000FD4F808180937E1E41DC2D813E814F8121
:1009800058852F5F3F4F4F4F5F4F2D833E834F83DF
:100990005887EFD26D8F7E8F8F8F98A380917E1EA8
:1009A000823609F422C108F048C0823509F494C0A7
:1009B000C0F48F3409F47EC0803509F0DFC0E091C7
:1009C0001202F0911302E65EFD4F808180937F1E3C
:1009D00015DC5301420162E0860E911CA11CB11C82
:1009E0009CC0833509F49DC0813609F0C7C0E091F1
:1009F0001202F0911302E65EFD4F808180937F1E0C
:100A0000FDDBE0911202F0911302E65EFD4F808162
:100A10008093801EF3DBC090801ED12CDC2CCC2474
:100A200080917F1EC82AE12CF12C5301420173E012
:100A3000870E911CA11CB11CDEC08038B8F4803731
:100A400008F091C0833679F1863609F097C06AE5DF
:100A500071E08AE19EE10E942F0E6AE17EE18AEA5E
:100A60009EE1BBDB8AEA9EE11AD757C0803908F0C5
:100A700085C0E0911202F0911302E65EFD4F40E066
:100A800060818AE2E7DCBADB80917E1E8F70C82E1F
:100A9000D12CE12CF12C5301420192E0890E911CE2
:100AA000A11CB11CA8C032E7C32E33E0D32EE12C29
:100AB000F12CA1C0E0911202F0911302E65EFD4F0D
:100AC000808180937F1E9ADB5301420132E0830EC6
:100AD000911CA11CB11C21C0E0911202F0911302E3
:100AE000E65EFD4F808180937F1E88DBE0911202DD
:100AF000F0911302E65EFD4F80818093801E7EDBC5
:100B000040E06091801E80917F1EA4DC5301420171
:100B100043E0840E911CA11CB11CC12CD12C760188
:100B20006AC0E0911202F0911302E65EFD4F8081EF
:100B300080937F1E63DBE0911202F0911302E65E68
:100B4000FD4F80818093801E59DB41E06091801EC3
:100B500080917F1E7FDC5301420153E0850E911C82
:100B6000A11CB11CDACF8F70C82ED12C8FEFC81A00
:100B7000D80A0D2C000CEE08FF083DC0BF92AF92C2
:100B80009F928F921F928F931F928F9386E691E090
:100B90009F938F938AE19EE19F938F930E94360EDD
:100BA0006AE17EE18AEA9EE118DB0FB6F894DEBFC7
:100BB0000FBECDBF8AEA9EE1AA960FB6F894DEBFBB
:100BC0000FBECDBFDF91CF911F910F91FF90EF909E
:100BD000DF90CF90BF90AF909F908F907F906F905D
:100BE0005F904F903F902F905AC69FEDC92E92E094
:100BF000D92EE12CF12CBDD1DC01CB012D8D3E8D08
:100C00004F8D58A1821B930BA40BB50B4D855E85B0
:100C10006F857889480F591F6A1F7B1F4D875E8734
:100C20006F87788B24013501E0CD698D7A8D8B8DAE
:100C30009C8D29813A814B815C81C4D75F934F930E
:100C40003F932F9369897A898B899C8929813A817D
:100C50004B815C81B7D75F934F933F932F937C81F8
:100C60007F938B818F939A819F93A981AF9389E81A
:100C700091E09F938F938AE1E82E8EE1F82EFF9208
:100C8000EF92F4D7B7018AEA9EE198DA6D857E8506
:100C90008F8598892D813E814F81588593D75F93A9
:100CA0004F933F932F93B885BF93EF81EF93FE81CE
:100CB000FF932D812F938EEB91E09F938F93FF9263
:100CC000EF92D4D7B7018AEA9EE178DA0FB6F894AA
:100CD00080919F1E9091A01EA091A11EB091A21E76
:100CE0000FBE4DA15EA16FA178A5841B950BA60B2D
:100CF000B70BBF93AF939F938F93AAE0B0E029A562
:100D00003AA5412F502F89D729EB31E040E050E040
:100D100059D75F934F933F932F9381EE91E09F9329
:100D20008F93FF92EF92A2D70FB6F894DEBF0FBE5B
:100D3000CDBFB7018AEA9EE1AA960FB6F894DEBF4E
:100D40000FBECDBFDF91CF911F910F91FF90EF901C
:100D5000DF90CF90BF90AF909F908F907F906F90DB
:100D60005F904F903F902F9029CAAA960FB6F894A3
:100D7000DEBF0FBECDBFDF91CF911F910F91FF90CE
:100D8000EF90DF90CF90BF90AF909F908F907F902B
:100D90006F905F904F903F902F900895CF93DF9387
:100DA00000D0CDB7DEB72DE029832AE02A83DC010D
:100DB000ED91FC910280F381E02D42E050E0BE0114
:100DC0006F5F7F4F09950F900F90DF91CF9108953E
:100DD00024D013DA5FDBFECF1DBA109268001CBC72
:100DE00010BE1FBA10927A0010926E0010926F001F
:100DF00010927000109271001092C9001092BC0005
:100E000011B814B817B81AB81DB810BA12B815B876
:100E100018B81BB81EB811BA0895F894E1E6F0E0CE
:100E200020E82083108283E084BD85BDEEE6F0E0FB
:100E300080818160808391E09093800082E0809344
:100E400081009093B0008093B100909390008093C4
:100E5000910086E880937A0020937B0010927E00B8
:100E6000A7D078940895F89484B7877F84BF809141
:100E700060008061809360001092600080E29EE4D8
:100E80000197F1F781E08093E00080E28093D80041
:100E900080E69AEE0197F1F79FDF0C9400FEFFCFFA
:100EA000F8949ADF80E69AEE0197F1F70C9400002F
:100EB000FFCF8F938FB78F9380919E1E8D5F8D375D
:100EC000D0F480939E1E80919F1E8F5F80939F1E03
:100ED000D8F08091A01E8F4F8093A01EA8F0809123
:100EE000A11E8F4F8093A11E78F08091A21E8F4F7C
:100EF0008093A21E09C08D5780939E1E80919F1ED5
:100F00008E5F80939F1E28F78091A31E8C5F809335
:100F1000A31E58F08091A41E8F4F8093A41E28F02A
:100F20008091A51E8F4F8093A51E8F918FBF8F91AB
:100F30001895CF92DF92EF92FF926B017C0119D04E
:100F40009B01C114D104E104F10471F012D0621BC1
:100F5000730B683E7340A8F381E0C81AD108E1081A
:100F6000F10828513C4FEDCFFF90EF90DF90CF90EC
:100F700008950FB6F89466B515B27091A31E8091CE
:100F8000A41E9091A51E0FBE10FE05C06F3F19F064
:100F90007C5F8F4F9F4F11240024660F001C660F4B
:100FA000001C702908958091E80080FFFCCF08950F
:100FB0008091D80087FF02C085FF1BC081E8809325
:100FC000D70080EA8093D80086E189BD09B400FE8D
:100FD000FDCF80E98093D8001092E0001092B61EF9
:100FE0001092B51E1092B41E1092E1008DE0809315
:100FF000E20008951F920F920FB60F9211240BB6C4
:101000000F922F933F934F935F936F937F938F93A1
:101010009F93AF93BF93EF93FF939091E100109252
:10102000E10093FF11C01092E90081E08093EB0092
:101030001092EC0082E28093ED0088E08093F00053
:101040001092B61E1092B41E92FF1DC08091B61E63
:101050008823C9F08091A91E882359F0815080937C
:10106000A91E811106C084E08093E9008AE3809381
:10107000E8008091A81E882331F081508093A81E3B
:10108000811101C0F0DE90FF0CC080E18093E2008E
:101090001092B61E81E08093B51E80EA8093D8003E
:1010A00019BC8091B51E882379F094FF0DC086E1AC
:1010B00089BD09B400FEFDCF80E98093D8008DE0A2
:1010C0008093E2001092B51EFF91EF91BF91AF9116
:1010D0009F918F917F916F915F914F913F912F9150
:1010E0000F900BBE0F900FBE0F901F9018951F9280
:1010F0000F920FB60F9211240BB60F92EF92FF9240
:101100000F931F932F933F934F935F936F937F930F
:101110008F939F93AF93BF93CF93EF93FF931092CF
:10112000E9008091E80083FF30C1C091F100809117
:10113000F100E090F100F090F1000091F1001091C9
:10114000F1002091F1003091F10092EF9093E800CE
:10115000863009F03FC086E0E8E9F0E0459155911E
:101160004E155F0511F0359615C045915591401704
:10117000510711F033960EC04591559184912F3F40
:10118000310519F010F02FEF30E0281708F4822F06
:101190003EEF08C0815011F7F8C0891B3093E8007A
:1011A0008823A9F09091E800292F2570D9F392FDAA
:1011B000EFC0982F813208F090E2292F222369F3A3
:1011C000FA0145914093F100AF012150F7CF9032E1
:1011D00049F3DEC0853049F48EEF8093E800E3DE0A
:1011E0008E2D80688093E300D3C0893001F5C11152
:1011F000CCC0E092B61E1092B41E1092A91E8EEFC3
:101200008093E80081E0EBE5F1E08093E9009591BF
:101210009093EB00992331F095919093EC00959188
:101220009093ED008F5F853081F78EE1A9C0883003
:1012300049F4C03809F0A9C0B6DE8091B61E80938B
:10124000F1007DC0813279F4C13A09F09EC0ABDE75
:10125000E0E0F1E087E08E0F90819093F10031960D
:101260008E13FACF6CC0803209F047C0C13209F04A
:101270008CC08091E80082FFFCCFE0E0F1E087E0E5
:101280008E0F9091F100908331968E13FACF8BEFF1
:101290008093E8008EEF8093E80030910001409148
:1012A0000101809102012091030190E0A0E0B0E0F3
:1012B000DC0199278827942B832BB22B8638910544
:1012C000A105B10521F48FE08093A81E61C0863985
:1012D0009105A105B10509F05BC084E08093E900A8
:1012E0009FEF8091EE00837039F09093E800809139
:1012F000E80082FDFCCFF5CFD3DD823231F4C1327C
:1013000009F043C0E092B41E04C0833221F4C1321C
:10131000E1F549DE14C0811116C045DEC23851F432
:101320000093E9008091EB0085FB882780F91092FB
:10133000E90001C080E08093F1001092F1008EEF8F
:101340008093E80025C0982F9D7F9130F1F4C23042
:10135000E1F4EF28D1F40F779FEF900F9630A8F4C7
:101360009EEF9093E8000093E900833071F089E1EB
:101370008093EB0081E090E001C0880F0A95EAF7C6
:101380008093EA001092EA0003C081E28093EB00B0
:10139000FF91EF91CF91BF91AF919F918F917F91ED
:1013A0006F915F914F913F912F911F910F91FF90FE
:1013B000EF900F900BBE0F900FBE0F901F901895DF
:1013C000CF93DF931F92CDB7DEB76983DC01ED9138
:1013D000FC910280F381E02D41E050E0BE016F5F9F
:1013E0007F4F09950F90DF91CF910895FC018FB742
:1013F000F8949091B61E911102C090E010C093E055
:101400009093E9009091F200911109C02091E800B9
:1014100022FFF3CF25FDF1CF2BE62093E8008FBF0D
:101420002085318537FD03C09F3F09F09F5F892FDD
:1014300090E00895CF93DF93EC018885998597FF1D
:1014400009C0E881F9810680F781E02DCE01099578
:101450009987888788859985DF91CF910895FC01C8
:101460002085318537FD07C04FEF5FEF51874087FB
:10147000C901992708959FB7F8948091B61E8823D3
:1014800069F083E08093E9002BE68091E80085FD18
:1014900009C082FF03C02093E800F7CF9FBF8FEF02
:1014A0009FEF08958091F1002091E80025FD03C091
:1014B0002BE62093E8009FBF90E00895DF92EF9223
:1014C000FF920F931F93CF93DF938C01EB018091D9
:1014D000B61E882371F07FB7F89484E08093E9000A
:1014E0008091A71E882369F08091E80085FD07C0E0
:1014F0007FBF81E0F801828320E030E0D1C010920C
:10150000A71E20E030E064E080E4F82EA1EFB0E018
:101510009AE3E92EE3E0DE2E4115510509F4BFC040
:101520008091E400815F9091E80095FD16C07FBF37
:101530009091E400981304C081E08093A71E05C039
:101540009091B61E911104C081E0F8018283A8C079
:101550007FB7F8946093E900E6CF8091F2009F2D69
:10156000981BE92FF0E04E175F0708F4942FE92F3E
:10157000F0E04E1B5F0B2E0F3F1FE0E4E91BE03451
:1015800028F4EE0FFF27E953F54F099480C0999195
:101590009C9399919C9399919C9399919C939991E7
:1015A0009C9399919C9399919C9399919C939991D7
:1015B0009C9399919C9399919C9399919C939991C7
:1015C0009C9399919C9399919C9399919C939991B7
:1015D0009C9399919C9399919C9399919C939991A7
:1015E0009C9399919C9399919C9399919C93999197
:1015F0009C9399919C9399919C9399919C93999187
:101600009C9399919C9399919C9399919C93999176
:101610009C9399919C9399919C9399919C93999166
:101620009C9399919C9399919C9399919C93999156
:101630009C9399919C9399919C9399919C93999146
:101640009C9399919C9399919C9399919C93999136
:101650009C9399919C9399919C9399919C93999126
:101660009C9399919C9399919C9399919C93999116
:101670009C9399919C9399919C9399919C93999106
:101680009C9399919C9399919C9399919C9380910F
:10169000E80085FFE092E800D092A91E3DCF7FBF11
:1016A000C901DF91CF911F910F91FF90EF90DF90D3
:1016B00008952FEF3FEFFC013187208779DC0FB6CB
:1016C000F89480919F1E9091A01EA091A11EB091B0
:1016D000A21E0FBE9C018091B61E882329F068ECE3
:1016E00070E080E090E025CC8091B51E882301F168
:1016F0000FB6F89480919F1E9091A01EA091A11EFC
:10170000B091A21E0FBE4091B51E442389F00FB6C2
:10171000F89440919F1E5091A01E6091A11E70915F
:10172000A21E0FBE481B590B4B3F510560F311C061
:101730000FB6F89480919F1E9091A01EA091A11EBB
:10174000B091A21E0FBE821B930B853C994008F4FA
:10175000C2CF08958F929F92AF92BF92CF92DF92A5
:10176000EF92FF920F931F93CF93DF93EC010FB68D
:10177000F894C0909F1ED090A01EE090A11EF09003
:10178000A21E0FBE4115510509F461C088859985D7
:1017900097FD0FC0FB0180838FEF9FEF99878887AC
:1017A0004150510909F455C06F5F7F4FE1E0F0E00F
:1017B00002C0E0E0F0E013E00BE68FB7F894909100
:1017C000B61E992331F01093E9009091E80092FD44
:1017D00002C08FBF39C02091F200A22FB0E04A179B
:1017E0005B0708F4242F362FDB019A2F931B9217E7
:1017F00020F49091F1009D93F8CF30E0620F731FB9
:101800009091E80095FF0093E8008FBFE20FF31F6F
:10181000421B530B09F10FB6F89480919F1E9091D3
:10182000A01EA091A11EB091A21E0FBE8C199D09F1
:10183000AE09BF098B809C80AD80BE80881599055C
:10184000AA05BB0508F4B9CF81E08F8305C080E00D
:1018500001C081E090E001C0CF01DF91CF911F91E5
:101860000F91FF90EF90DF90CF90BF90AF909F903F
:101870008F9008959FB7F8948091B61E882321F029
:101880008091A91E811102C09FBF089584E08093BA
:10189000E9008AE38093E8001092A91EF5CFEACF11
:1018A000EAEAFEE18AE0DF011D928A95E9F788EE17
:1018B00093E0A0E0B0E083839483A583B68382E0C5
:1018C00092E09183808308955058BB27AA270ED0B9
:1018D000D8C0C9D030F0CED020F031F49F3F11F401
:1018E0001EF4BEC00EF4E095E7FBB4C0E92FDAD0D9
:1018F00080F3BA17620773078407950718F071F42D
:101900009EF5F2C00EF4E0950B2EBA2FA02D0B0120
:10191000B90190010C01CA01A0011124FF27591B34
:1019200099F0593F50F4503E68F11A16F040A22F3A
:10193000232F342F4427585FF3CF469537952795AB
:10194000A795F0405395C9F77EF41F16BA0B620BAA
:10195000730B840BBAF09150A1F0FF0FBB1F661FF1
:10196000771F881FC2F70EC0BA0F621F731F841F34
:1019700048F4879577956795B795F7959E3F08F05A
:10198000B3CF9395880F08F09927EE0F9795879519
:101990000895E89409C097FB3EF490958095709562
:1019A00061957F4F8F4F9F4F9923A9F0F92F96E9AB
:1019B000BB279395F695879577956795B795F11120
:1019C000F8CFFAF4BB0F11F460FF1BC06F5F7F4FBD
:1019D0008F4F9F4F16C0882311F096E911C07723CF
:1019E00021F09EE8872F762F05C0662371F096E8D8
:1019F000862F70E060E02AF09A95660F771F881FA7
:101A0000DAF7880F9695879597F90895990F00084A
:101A1000550FAA0BE0E8FEEF16161706E807F907C0
:101A2000C0F012161306E407F50798F0621B730B5B
:101A3000840B950B39F40A2661F0232B242B252BDC
:101A400021F408950A2609F4A140A6958FEF811D7F
:101A5000811D089597F99F6780E870E060E0089520
:101A60009FEF80EC089500240A94161617061806B6
:101A70000906089500240A94121613061406050692
:101A80000895092E0394000C11F4882352F0BB0F23
:101A900040F4BF2B11F460FF04C06F5F7F4F8F4F86
:101AA0009F4F089557FD9058440F551F59F05F3FC1
:101AB00071F04795880F97FB991F61F09F3F79F070
:101AC00087950895121613061406551FF2CF4695F2
:101AD000F1DF08C0161617061806991FF1CF869574
:101AE0007105610508940895E894BB276627772758
:101AF000CB0197F908958ADF08F48FEF08950BD092
:101B0000C0CFB1DF28F0B6DF18F0952309F0A2CFDF
:101B1000A7CF1124EACFC6DFA0F3959FD1F3950F8D
:101B200050E0551F629FF001729FBB27F00DB11D61
:101B3000639FAA27F00DB11DAA1F649F6627B00DF1
:101B4000A11D661F829F2227B00DA11D621F739FDA
:101B5000B00DA11D621F839FA00D611D221F749FE8
:101B60003327A00D611D231F849F600D211D822F2F
:101B7000762F6A2F11249F5750408AF0E1F0882376
:101B80004AF0EE0FFF1FBB1F661F771F881F915083
:101B90005040A9F79E3F510570F05CCFA6CF5F3F44
:101BA000ECF3983EDCF3869577956795B795F795B6
:101BB000E7959F5FC1F7FE2B880F911D969587953E
:101BC00097F90895A1E21A2EAA1BBB1BFD010DC0B7
:101BD000AA1FBB1FEE1FFF1FA217B307E407F507DD
:101BE00020F0A21BB30BE40BF50B661F771F881FB9
:101BF000991F1A9469F760957095809590959B014F
:101C0000AC01BD01CF010895EE0FFF1F0024001CA1
:101C10000BBE0790F691E02D099409D0A59F900D79
:101C2000B49F900DA49F800D911D11240895A29F33
:101C3000B001B39FC001A39F700D811D1124911DA0
:101C4000B29F700D811D1124911D0895FB01DC01CF
:101C500002C001900D9241505040D8F70895FB0109
:101C6000DC0101900D920020E1F708950F931F937E
:101C7000CF93DF93CDB7DEB72E970FB6F894DEBFC4
:101C80000FBECDBF0D891E8986E08C831A83098320
:101C90008FEF9FE79E838D83AE01475E5F4F6F8915
:101CA000788DCE01019611D02F813885F801E20F91
:101CB000F31F10822E960FB6F894DEBF0FBECDBF75
:101CC000DF91CF911F910F9108952F923F924F92E4
:101CD0005F926F927F928F929F92AF92BF92CF92BC
:101CE000DF92EF92FF920F931F93CF93DF93CDB7C5
:101CF000DEB72C970FB6F894DEBF0FBECDBF7C01C8
:101D00006B018A01FC0117821682838181FFB0C1B9
:101D1000CE0101964C01F7019381F60193FD859167
:101D200093FF81916F01882309F49EC1853239F4B4
:101D300093FD859193FF81916F01853221F4B70165
:101D400090E0C7D1E8CF512C312C20E02032A0F414
:101D50008B3269F030F4803259F0833269F42061BB
:101D60002CC08D3239F0803339F4216026C02260D6
:101D7000246023C0286021C027FD27C030ED380F24
:101D80003A3078F426FF06C0FAE05F9E300D112449
:101D9000532E13C08AE0389E300D1124332E20625A
:101DA0000CC08E3221F426FD5FC1206406C08C3643
:101DB00011F4206802C0883641F4F60193FD859144
:101DC00093FF81916F018111C1CF982F9F7D955411
:101DD000933028F40C5F1F4FFFE3F9830DC0833667
:101DE00031F0833771F0833509F057C021C0F80115
:101DF000808189830E5F1F4F44244394512C5401EA
:101E000014C03801F2E06F0E711CF801A080B1809F
:101E100026FF03C0652D70E002C06FEF7FEFC501A4
:101E20002C874CD12C0183012C852F77222E16C0B4
:101E30003801F2E06F0E711CF801A080B18026FF1E
:101E400003C0652D70E002C06FEF7FEFC5012C87E6
:101E50002AD12C012C852068222E830123FC19C055
:101E6000832D90E048165906A0F4B70180E290E077
:101E700030D13A94F5CFF50127FC859127FE819169
:101E80005F01B70190E025D131103A94F1E04F1A8B
:101E900051084114510479F7DEC0843611F08936B7
:101EA00031F5F80127FF07C060817181828193813C
:101EB0000C5F1F4F08C060817181072E000C880BDA
:101EC000990B0E5F1F4F2F76722E97FF09C09095CA
:101ED0008095709561957F4F8F4F9F4F2068722E30
:101EE0002AE030E0A4012DD1A82EA81843C08537E0
:101EF00029F42F7EB22E2AE030E025C0F22FF97FA0
:101F0000BF2E8F36C1F018F4883579F0ADC0803718
:101F100019F0883721F0A8C02F2F2061B22EB4FE0F
:101F20000DC08B2D8460B82E09C024FF0AC09F2FDE
:101F30009660B92E06C028E030E005C020E130E010
:101F400002C020E132E0F801B7FE07C06081718174
:101F5000828193810C5F1F4F06C06081718180E098
:101F600090E00E5F1F4FA401ECD0A82EA818FB2D07
:101F7000FF777F2E76FE0BC0372D3E7FA51450F4E1
:101F800074FE0AC072FC08C0372D3E7E05C0BA2C14
:101F9000372D03C0BA2C01C0B52C34FF0DC0FE0193
:101FA000EA0DF11D8081803311F4397E09C032FFC2
:101FB00006C0B394B39404C0832F867809F0B39419
:101FC00033FD12C030FF06C05A2CB31418F4530C62
:101FD0005B18B32CB31460F4B70180E290E03C8747
:101FE00078D0B3943C85F6CFB31410F43B1801C0FD
:101FF000312C34FF11C0B70180E390E03C8769D0F9
:102000003C8532FF16C031FD03C088E790E002C076
:1020100088E590E0B7010CC0832F867851F031FF3E
:1020200002C08BE201C080E237FD8DE2B70190E093
:1020300050D0A51430F4B70180E390E04AD05A9410
:10204000F8CFAA94F401EA0DF11D8081B70190E068
:1020500040D0A110F6CF332009F45DCEB70180E265
:1020600090E037D03A94F7CFF7018681978102C08C
:102070008FEF9FEF2C960FB6F894DEBF0FBECDBF4B
:10208000DF91CF911F910F91FF90EF90DF90CF9054
:10209000BF90AF909F908F907F906F905F904F9088
:1020A0003F902F900895FC01059061507040011001
:1020B000D8F7809590958E0F9F1F0895FC01615071
:1020C000704001900110D8F7809590958E0F9F1F5A
:1020D00008950F931F93CF93DF93FB01238121FD7D
:1020E00003C08FEF9FEF28C022FF16C046815781A3
:1020F000248135814217530744F4A081B1819D01A9
:102100002F5F3F4F318320838C93268137812F5F50
:102110003F4F3783268310C0EB01092F182F00840F
:10212000F185E02D0995892BE1F68E819F8101963D
:102130009F838E83812F902FDF91CF911F910F91DD
:102140000895FA01AA27283051F1203181F1E8944D
:102150006F936E7F6E5F7F4F8F4F9F4FAF4FB1E09A
:102160003ED0B4E03CD0670F781F891F9A1FA11D95
:10217000680F791F8A1F911DA11D6A0F711D811D96
:10218000911DA11D20D009F468943F912AE0269F5B
:1021900011243019305D3193DEF6CF010895462FBA
:1021A0004770405D4193B3E00FD0C9F7F6CF462F9B
:1021B0004F70405D4A3318F0495D31FD4052419304
:1021C00002D0A9F7EACFB4E0A695979587957795C1
:1021D0006795BA95C9F700976105710508959B0148
:1021E000AC010A2E06945795479537952795BA95D1
:1021F000C9F7620F731F841F951FA01D0895F894DF
:02220000FFCF0E
:1022020000E1000000000866696C652073697A6568
:102212003A20256C64006E6F2061636B202D3E2096
:1022220065786974006964656E74206661696C65BD
:102232006421006964656E74207061737365642142
:102242000073616D706C65733A20256C7500737450
:10225200617276656440256C6400656E64206F6609
:10226200206461746100756E6B6F776E20636F6DB1
:102272006D616E643A2030782578202F2025642005
:10228200706F733A20256C64007265616420746912
:102292006D65733A20256C7520617665726167659C
:1022A2002074696D653A20256C75206176657261CE
:1022B200676520726561643A20256C750A006C6F4F
:1022C2006F702074696D65733A20256C7520617694
:1022D20065726167652074696D653A20256C750ABF
:1022E2000063616C632074696D653A20256C75200A
:1022F2007265616C54696D653A20256C7500000049
:0E2302000000E0095E0AF6092F0A1A0A4F0CC5
:00000001FF
