:10000000B3C00000D9C00000D7C00000D5C00000B8
:10001000D3C00000D1C00000CFC00000CDC00000A0
:10002000CBC00000C9C0000050C30000CBC300001B
:10003000C3C00000C1C00000BFC00000BDC00000C0
:10004000BBC00000B9C00000B7C00000B5C00000D0
:10005000B3C00000B1C00000AFC0000095C20000F6
:10006000ABC00000A9C00000A7C00000A5C00000F0
:10007000A3C00000A1C000009FC000009DC0000000
:100080009BC0000099C0000097C0000095C0000010
:1000900093C0000091C0000000010000490112005F
:1000A00002000006014300030000020104010309ED
:1000B00004E8001802030904D0001603030904C26F
:1000C000000C0C0331003200330034003500000016
:1000D00016035500530042002000530065007200D3
:1000E000690061006C0000001803540065006500A1
:1000F0006E00730079006400750069006E006F0087
:1001000000000403090409024300020100C032098F
:100110000400000102020100052400100105240171
:1001200000010424020605240600010705820308D5
:10013000004009040100020A000000070503024014
:1001400000000705840240000012010002020000C6
:1001500020C01683040001010203010001C1020155
:10016000803601813600BB0711241FBECFEFD0E2DD
:10017000DEBFCDBF11E0A0E0B1E0ECE9F5E100E0C9
:100180000BBF02C007900D92A835B107D9F721E047
:10019000A8E5B1E001C01D92A23DB207E1F710E071
:1001A000C4EBD0E003C02197FE011BD7C33BD107AE
:1001B000D1F779D10C94CC0A23CF0895AF92BF9296
:1001C000CF92DF92EF92FF920F931F93CF93DF9323
:1001D000CDB7DEB7C054D1090FB6F894DEBF0FBE5D
:1001E000CDBF5C016B01FB0180819181A281B38154
:1001F00000E01CE1081B190B003411050CF03EC097
:1002000040E450E0BE016F5F7F4F88EC91E00DD677
:100210007C01F601808191810E151F05ECF4A80187
:10022000BE016F5F7F4F8A0D9B1DE4D6A701401B67
:10023000510BCA01052E000CAA0BBB0BF6018083E3
:100240009183A283B38361E070E06C0F7D1F600F28
:10025000711FC501CFD62CC0A701BE016F5F7F4FB4
:100260008A0D9B1DC7D6F601408151816281738141
:10027000C7010F2C000CAA0BBB0B12C0B501680FF5
:10028000791F40E450E088EC91E0CFD57C01092E45
:10029000000CAA0BBB0BF601408151816281738176
:1002A000840F951FA61FB71F80839183A283B383FA
:1002B000C701C05CDF4F0FB6F894DEBF0FBECDBFE5
:1002C000DF91CF911F910F91FF90EF90DF90CF9032
:1002D000BF90AF9008952F923F924F925F926F928E
:1002E0007F928F929F92AF92BF92CF92DF92EF92C6
:1002F000FF920F931F93CF93DF93CDB7DEB7C85014
:10030000DC410FB6F894DEBF0FBECDBF40E452E42F
:100310006FE070E088EC91E037D5CF5FD34E188264
:1003200019821A821B82C150DC4188EC91E0C9D34A
:10033000181619060CF09DC0412C512C3201812C4D
:10034000912C5401C12CD12C760187E0282E81E01C
:10035000382E08E511E078D1CB5FD34E68837983DE
:100360008A839B83C550DC41BE016F5F734ECE0113
:10037000019624DFFC0120E1C21627E2D206E10447
:10038000F10408F53FEFC31AD30AE30AF30A5CD17C
:10039000DC01CB01CB5FD34E288139814A815B815F
:1003A000C550DC41821B930BA40BB50B880E991E24
:1003B000AA1EBB1ECF01FF0FAA0BBB0B480E591E76
:1003C0006A1E7B1EC8CFCC5FD34E8881C450DC41EF
:1003D0008F93CD5FD34E8881C350DC418F93CE5F26
:1003E000D34E8881C250DC418F93CF5FD34E88813A
:1003F000C150DC418F93C301B201A7019601CFD553
:100400005F934F933F932F93C501B401A7019601CA
:10041000C6D55F934F933F932F93FF92EF92DF9256
:10042000CF923F922F921F930F93EDD5F801019039
:100430000020E9F73197AF0148555140E091C801DC
:10044000F091C9010280F381E02D68E571E088EC4C
:1004500091E009950FB6F894DEBF0FBECDBF412CD9
:10046000512C3201812C912C5401C12CD12C7601BC
:1004700072CFC85FD34E0FB6F894DEBF0FBECDBFAC
:10048000DF91CF911F910F91FF90EF90DF90CF9070
:10049000BF90AF909F908F907F906F905F904F90A4
:1004A0003F902F90089524D088DE15DFFECF1DBA2F
:1004B000109268001CBC10BE1FBA10927A001092F5
:1004C0006E0010926F0010927000109271001092E6
:1004D000C9001092BC0011B814B817B81AB81DB8EA
:1004E00010BA12B815B818B81BB81EB811BA0895CA
:1004F000F894E1E6F0E020E82083108283E084BDF8
:1005000085BDEEE6F0E080818160808391E090938C
:10051000800082E0809381009093B0008093B100CE
:10052000909390008093910086E880937A002093C6
:100530007B0010927E00A7D078940895F89484B739
:10054000877F84BF809160008061809360001092FB
:10055000600080E29EE40197F1F781E08093E00083
:1005600080E28093D80080E69AEE0197F1F79FDF52
:100570000C9400FEFFCFF8949ADF80E69AEE019784
:10058000F1F70C940000FFCF8F938FB78F9380917A
:10059000BC018D5F8D37D0F48093BC018091BD018B
:1005A0008F5F8093BD01D8F08091BE018F4F809303
:1005B000BE01A8F08091BF018F4F8093BF0178F0FA
:1005C0008091C0018F4F8093C00109C08D578093E7
:1005D000BC018091BD018E5F8093BD0128F78091A1
:1005E000C1018C5F8093C10158F08091C2018F4F8F
:1005F0008093C20128F08091C3018F4F8093C30183
:100600008F918FBF8F911895CF92DF92EF92FF92CB
:100610006B017C0119D09B01C114D104E104F104E8
:1006200071F012D0621B730B683E7340A8F381E037
:10063000C81AD108E108F10828513C4FEDCFFF90CE
:10064000EF90DF90CF9008950FB6F89466B515B28D
:100650007091C1018091C2019091C3010FBE10FE43
:1006600005C06F3F19F07C5F8F4F9F4F112400240E
:10067000660F001C660F001C702908958091E80029
:1006800080FFFCCF08958091D80087FF02C085FFCE
:100690001BC081E88093D70080EA8093D80086E170
:1006A00089BD09B400FEFDCF80E98093D800109287
:1006B000E0001092D4011092D3011092D201109256
:1006C000E1008DE08093E20008951F920F920FB633
:1006D0000F9211240BB60F922F933F934F935F937A
:1006E0006F937F938F939F93AF93BF93EF93FF93FA
:1006F0009091E1001092E10093FF11C01092E90087
:1007000081E08093EB001092EC0082E28093ED0098
:1007100088E08093F0001092D4011092D20192FFF1
:100720001DC08091D4018823C9F08091C70188231E
:1007300059F081508093C701811106C084E08093F5
:10074000E9008AE38093E8008091C601882331F0B4
:1007500081508093C601811101C0F0DE90FF0CC072
:1007600080E18093E2001092D40181E08093D30174
:1007700080EA8093D80019BC8091D301882379F056
:1007800094FF0DC086E189BD09B400FEFDCF80E96C
:100790008093D8008DE08093E2001092D301FF9106
:1007A000EF91BF91AF919F918F917F916F915F91E9
:1007B0004F913F912F910F900BBE0F900FBE0F9056
:1007C0001F9018951F920F920FB60F9211240BB61F
:1007D0000F92EF92FF920F931F932F933F934F939C
:1007E0005F936F937F938F939F93AF93BF93CF93B9
:1007F000EF93FF931092E9008091E80083FF30C1EE
:10080000C091F1008091F100E090F100F090F100D2
:100810000091F1001091F1002091F1003091F10070
:1008200092EF9093E800863009F03FC086E0E8E957
:10083000F0E0459155914E155F0511F0359615C0C4
:10084000459155914017510711F033960EC04591CF
:10085000559184912F3F310519F010F02FEF30E0C2
:10086000281708F4822F3EEF08C0815011F7F8C016
:10087000891B3093E8008823A9F09091E800292F84
:100880002570D9F392FDEFC0982F813208F090E2E5
:10089000292F222369F3FA0145914093F100AF011A
:1008A0002150F7CF903249F3DEC0853049F48EEF06
:1008B0008093E800E3DE8E2D80688093E300D3C050
:1008C000893001F5C111CCC0E092D4011092D2015F
:1008D0001092C7018EEF8093E80081E0EBE5F1E034
:1008E0008093E90095919093EB00992331F09591D5
:1008F0009093EC0095919093ED008F5F853081F798
:100900008EE1A9C0883049F4C03809F0A9C0B6DE2C
:100910008091D4018093F1007DC0813279F4C13A95
:1009200009F09EC0ABDEE0E0F1E087E08E0F908141
:100930009093F10031968E13FACF6CC0803209F09B
:1009400047C0C13209F08CC08091E80082FFFCCF23
:10095000E0E0F1E087E08E0F9091F1009083319616
:100960008E13FACF8BEF8093E8008EEF8093E80030
:100970003091000140910101809102012091030119
:1009800090E0A0E0B0E0DC0199278827942B832B2E
:10099000B22B86389105A105B10521F48FE0809333
:1009A000C60161C086399105A105B10509F05BC09A
:1009B00084E08093E9009FEF8091EE00837039F02E
:1009C0009093E8008091E80082FDFCCFF5CFD3DD65
:1009D000823231F4C13209F043C0E092D20104C046
:1009E000833221F4C132E1F549DE14C0811116C011
:1009F00045DEC23851F40093E9008091EB0085FB9D
:100A0000882780F91092E90001C080E08093F1000E
:100A10001092F1008EEF8093E80025C0982F9D7F03
:100A20009130F1F4C230E1F4EF28D1F40F779FEF69
:100A3000900F9630A8F49EEF9093E8000093E900A1
:100A4000833071F089E18093EB0081E090E001C098
:100A5000880F0A95EAF78093EA001092EA0003C033
:100A600081E28093EB00FF91EF91CF91BF91AF9125
:100A70009F918F917F916F915F914F913F912F91B6
:100A80001F910F91FF90EF900F900BBE0F900FBE34
:100A90000F901F901895CF93DF931F92CDB7DEB7BD
:100AA0006983DC01ED91FC910280F381E02D41E04E
:100AB00050E0BE016F5F7F4F09950F90DF91CF919E
:100AC0000895FC018FB7F8949091D401911102C060
:100AD00090E010C093E09093E9009091F2009111A2
:100AE00009C02091E80022FFF3CF25FDF1CF2BE6CE
:100AF0002093E8008FBF2085318537FD03C09F3FDD
:100B000009F09F5F892F90E00895CF93DF93EC0168
:100B10008885998597FF09C0E881F9810680F7816A
:100B2000E02DCE0109959987888788859985DF9181
:100B3000CF910895FC012085318537FD07C04FEF27
:100B40005FEF51874087C901992708959FB7F894AF
:100B50008091D401882369F083E08093E9002BE63B
:100B60008091E80085FD09C082FF03C02093E80062
:100B7000F7CF9FBF8FEF9FEF08958091F1002091F5
:100B8000E80025FD03C02BE62093E8009FBF90E01E
:100B90000895DF92EF92FF920F931F93CF93DF930D
:100BA0008C01EB018091D401882371F07FB7F89418
:100BB00084E08093E9008091C501882369F08091E9
:100BC000E80085FD07C07FBF81E0F801828320E057
:100BD00030E0D1C01092C50120E030E064E080E454
:100BE000F82EA1EFB0E09AE3E92EE3E0DE2E411506
:100BF000510509F4BFC08091E400815F9091E80045
:100C000095FD16C07FBF9091E400981304C081E069
:100C10008093C50105C09091D401911104C081E079
:100C2000F8018283A8C07FB7F8946093E900E6CF0B
:100C30008091F2009F2D981BE92FF0E04E175F077F
:100C400008F4942FE92FF0E04E1B5F0B2E0F3F1F8F
:100C5000E0E4E91BE03428F4EE0FFF27EE5CF94FE7
:100C6000099480C099919C9399919C9399919C939C
:100C700099919C9399919C9399919C9399919C9310
:100C800099919C9399919C9399919C9399919C9300
:100C900099919C9399919C9399919C9399919C93F0
:100CA00099919C9399919C9399919C9399919C93E0
:100CB00099919C9399919C9399919C9399919C93D0
:100CC00099919C9399919C9399919C9399919C93C0
:100CD00099919C9399919C9399919C9399919C93B0
:100CE00099919C9399919C9399919C9399919C93A0
:100CF00099919C9399919C9399919C9399919C9390
:100D000099919C9399919C9399919C9399919C937F
:100D100099919C9399919C9399919C9399919C936F
:100D200099919C9399919C9399919C9399919C935F
:100D300099919C9399919C9399919C9399919C934F
:100D400099919C9399919C9399919C9399919C933F
:100D500099919C9399919C9399919C9399919C932F
:100D600099919C938091E80085FFE092E800D092F1
:100D7000C7013DCF7FBFC901DF91CF911F910F9177
:100D8000FF90EF90DF9008952FEF3FEFFC01318748
:100D9000208779DC0FB6F8948091BD019091BE0157
:100DA000A091BF01B091C0010FBE9C018091D40100
:100DB000882329F068EC70E080E090E025CC8091F9
:100DC000D301882301F10FB6F8948091BD01909171
:100DD000BE01A091BF01B091C0010FBE4091D301EF
:100DE000442389F00FB6F8944091BD015091BE01A3
:100DF0006091BF017091C0010FBE481B590B4B3F62
:100E0000510560F311C00FB6F8948091BD01909127
:100E1000BE01A091BF01B091C0010FBE821B930B18
:100E2000853C994008F4C2CF08958F929F92AF926B
:100E3000BF92CF92DF92EF92FF920F931F93CF93C7
:100E4000DF93EC010FB6F894C090BD01D090BE01C5
:100E5000E090BF01F090C0010FBE4115510509F4AB
:100E600061C08885998597FD0FC0FB0180838FEF56
:100E70009FEF998788874150510909F455C06F5FEA
:100E80007F4FE1E0F0E002C0E0E0F0E013E00BE6CD
:100E90008FB7F8949091D401992331F01093E90021
:100EA0009091E80092FD02C08FBF39C02091F200FE
:100EB000A22FB0E04A175B0708F4242F362FDB017E
:100EC0009A2F931B921720F49091F1009D93F8CFE5
:100ED00030E0620F731F9091E80095FF0093E800E7
:100EE0008FBFE20FF31F421B530B09F10FB6F894AB
:100EF0008091BD019091BE01A091BF01B091C00150
:100F00000FBE8C199D09AE09BF098B809C80AD80F6
:100F1000BE8088159905AA05BB0508F4B9CF81E004
:100F20008F8305C080E001C081E090E001C0CF0167
:100F3000DF91CF911F910F91FF90EF90DF90CF90B5
:100F4000BF90AF909F908F9008959FB7F894809135
:100F5000D401882321F08091C701811102C09FBF75
:100F6000089584E08093E9008AE38093E80010927A
:100F7000C701F5CFEACFE8ECF1E08AE0DF011D928E
:100F80008A95E9F788EE93E0A0E0B0E0838394834C
:100F9000A583B6838BE491E0918380830895A1E2D9
:100FA0001A2EAA1BBB1BFD010DC0AA1FBB1FEE1FE3
:100FB000FF1FA217B307E407F50720F0A21BB30B2E
:100FC000E40BF50B661F771F881F991F1A9469F7AA
:100FD00060957095809590959B01AC01BD01CF0106
:100FE0000895EE0FFF1F0024001C0BBE0790F69122
:100FF000E02D0994FB01DC0102C001900D924150EB
:101000005040D8F708950F931F93CF93DF93CDB738
:10101000DEB72E970FB6F894DEBF0FBECDBF0D8999
:101020001E8986E08C831A8309838FEF9FE79E8356
:101030008D83AE01475E5F4F6F89788DCE0101963B
:1010400011D02F813885F801E20FF31F10822E9600
:101050000FB6F894DEBF0FBECDBFDF91CF911F91C9
:101060000F9108952F923F924F925F926F927F92CD
:101070008F929F92AF92BF92CF92DF92EF92FF92A8
:101080000F931F93CF93DF93CDB7DEB72C970FB697
:10109000F894DEBF0FBECDBF7C016B018A01FC015D
:1010A00017821682838181FFB0C1CE0101964C0167
:1010B000F7019381F60193FD859193FF81916F0173
:1010C000882309F49EC1853239F493FD859193FFFD
:1010D00081916F01853221F4B70190E0C7D1E8CF4B
:1010E000512C312C20E02032A0F48B3269F030F406
:1010F000803259F0833269F420612CC08D3239F08E
:10110000803339F4216026C02260246023C0286027
:1011100021C027FD27C030ED380F3A3078F426FF84
:1011200006C0FAE05F9E300D1124532E13C08AE0F2
:10113000389E300D1124332E20620CC08E3221F4E3
:1011400026FD5FC1206406C08C3611F4206802C001
:10115000883641F4F60193FD859193FF81916F01EB
:101160008111C1CF982F9F7D9554933028F40C5F47
:101170001F4FFFE3F9830DC0833631F0833771F0E1
:10118000833509F057C021C0F801808189830E5F43
:101190001F4F44244394512C540114C03801F2E0F1
:1011A0006F0E711CF801A080B18026FF03C0652D71
:1011B00070E002C06FEF7FEFC5012C874CD12C018E
:1011C00083012C852F77222E16C03801F2E06F0E96
:1011D000711CF801A080B18026FF03C0652D70E06E
:1011E00002C06FEF7FEFC5012C872AD12C012C851F
:1011F0002068222E830123FC19C0832D90E048161D
:101200005906A0F4B70180E290E030D13A94F5CFCE
:10121000F50127FC859127FE81915F01B70190E0E0
:1012200025D131103A94F1E04F1A5108411451047C
:1012300079F7DEC0843611F0893631F5F80127FFE1
:1012400007C060817181828193810C5F1F4F08C04C
:1012500060817181072E000C880B990B0E5F1F4F68
:101260002F76722E97FF09C09095809570956195A5
:101270007F4F8F4F9F4F2068722E2AE030E0A401ED
:101280002DD1A82EA81843C0853729F42F7EB22E61
:101290002AE030E025C0F22FF97FBF2E8F36C1F053
:1012A00018F4883579F0ADC0803719F0883721F00F
:1012B000A8C02F2F2061B22EB4FE0DC08B2D8460EC
:1012C000B82E09C024FF0AC09F2F9660B92E06C011
:1012D00028E030E005C020E130E002C020E132E04B
:1012E000F801B7FE07C060817181828193810C5F34
:1012F0001F4F06C06081718180E090E00E5F1F4F3C
:10130000A401ECD0A82EA818FB2DFF777F2E76FE27
:101310000BC0372D3E7FA51450F474FE0AC072FC3A
:1013200008C0372D3E7E05C0BA2C372D03C0BA2C1D
:1013300001C0B52C34FF0DC0FE01EA0DF11D808106
:10134000803311F4397E09C032FF06C0B394B394E0
:1013500004C0832F867809F0B39433FD12C030FFA8
:1013600006C05A2CB31418F4530C5B18B32CB314E6
:1013700060F4B70180E290E03C8778D0B3943C857C
:10138000F6CFB31410F43B1801C0312C34FF11C058
:10139000B70180E390E03C8769D03C8532FF16C0FE
:1013A00031FD03C088E790E002C088E590E0B70116
:1013B0000CC0832F867851F031FF02C08BE201C050
:1013C00080E237FD8DE2B70190E050D0A51430F4F3
:1013D000B70180E390E04AD05A94F8CFAA94F40180
:1013E000EA0DF11D8081B70190E040D0A110F6CF49
:1013F000332009F45DCEB70180E290E037D03A9413
:10140000F7CFF7018681978102C08FEF9FEF2C966F
:101410000FB6F894DEBF0FBECDBFDF91CF911F9105
:101420000F91FF90EF90DF90CF90BF90AF909F9083
:101430008F907F906F905F904F903F902F90089586
:10144000FC010590615070400110D8F7809590958F
:101450008E0F9F1F0895FC01615070400190011094
:10146000D8F7809590958E0F9F1F08950F931F9327
:10147000CF93DF93FB01238121FD03C08FEF9FEF0B
:1014800028C022FF16C0468157812481358142172A
:10149000530744F4A081B1819D012F5F3F4F3183F9
:1014A00020838C93268137812F5F3F4F378326839C
:1014B00010C0EB01092F182F0084F185E02D09954C
:1014C000892BE1F68E819F8101969F838E83812FE8
:1014D000902FDF91CF911F910F910895FA01AA27C4
:1014E000283051F1203181F1E8946F936E7F6E5F67
:1014F0007F4F8F4F9F4FAF4FB1E03ED0B4E03CD015
:10150000670F781F891F9A1FA11D680F791F8A1FF7
:10151000911DA11D6A0F711D811D911DA11D20D05E
:1015200009F468943F912AE0269F11243019305D18
:101530003193DEF6CF010895462F4770405D419309
:10154000B3E00FD0C9F7F6CF462F4F70405D4A3356
:1015500018F0495D31FD4052419302D0A9F7EACF1E
:10156000B4E0A6959795879577956795BA95C9F74D
:1015700000976105710508959B01AC010A2E069440
:101580005795479537952795BA95C9F7620F731FF9
:0C159000841F951FA01D0895F894FFCF44
:10159C0000E1000000000874696D65733A20256C49
:1015AC007520617665726167652074696D653A2096
:1015BC00256C752061766572616765207265616462
:1015CC003A20256C7520646174614F66667365748E
:1015DC003A20256C750A00000000004B05C9056116
:0815EC00059A058505BA070008
:00000001FF
