:10000000B3C00000DAC00000D8C00000D6C00000B5
:10001000D4C00000D2C00000D0C00000CEC000009C
:10002000CCC00000CAC00000A7C6000022C7000064
:10003000C4C00000C2C00000C0C00000BEC00000BC
:10004000BCC00000BAC00000B8C00000B6C00000CC
:10005000B4C00000B2C00000B0C00000ECC5000099
:10006000ACC00000AAC00000A8C00000A6C00000EC
:10007000A4C00000A2C00000A0C000009EC00000FC
:100080009CC000009AC0000098C0000096C000000C
:1000900094C0000092C0000000010000490112005D
:1000A00002000006014300030000020104010309ED
:1000B00004E8001802030904D0001603030904C26F
:1000C000000C0C0331003200330034003500000016
:1000D00016035500530042002000530065007200D3
:1000E000690061006C0000001803540065006500A1
:1000F0006E00730079006400750069006E006F0087
:1001000000000403090409024300020100C032098F
:100110000400000102020100052400100105240171
:1001200000010424020605240600010705820308D5
:10013000004009040100020A000000070503024014
:1001400000000705840240000012010002020000C6
:1001500020C01683040001010203010001C1020155
:10016000803601813600120B11241FBECFEFD0E282
:10017000DEBFCDBF11E0A0E0B1E0EAE8FCE100E0C5
:100180000BBF02C007900D92AE3CB107D9F72AE130
:10019000AEECB1E001C01D92A437B207E1F710E068
:1001A000C4EBD0E004C02197FE010E94480BC33B82
:1001B000D107C9F7CFD40C94430E22CFFB01019095
:1001C0000020E9F73197AF01461B570BDC01ED9199
:1001D000FC910280F381E02D09940F931F93CF933C
:1001E000DF93EC01EBDF8C01CE019AD4800F911FDD
:1001F000DF91CF911F910F91089508950F931F9351
:100200004091D2015091D3016091D4017091D501F8
:10021000FA01E652FE4F80810091CE011091CF018C
:100220002091D0013091D1010150110921093109EA
:100230000093CE011093CF012093D0013093D101D0
:100240004F5F5F4F6F4F7F4F411598E15907610531
:10025000710549F04093D2015093D3016093D401CA
:100260007093D50108C01092D2011092D301109260
:10027000D4011092D5011F910F9108950F931F93F0
:10028000CF93DF938C01CEE3DAE1CE018E539A4116
:10029000801791071CF4B2DF8993F7CFDF91CF91DC
:1002A0001F910F9108958F929F92AF92BF92EF92FC
:1002B000FF920F931F93CF93DF93CDB7DEB7C05458
:1002C000D1090FB6F894DEBF0FBECDBF8091D60125
:1002D0009091D701A091D801B091D90100E018E127
:1002E000081B190B003411050CF057C040E450E016
:1002F000BE016F5F7F4F8AE69AE10E946C0A7C0123
:10030000081719073CF58091D6019091D701A801F3
:10031000BE016F5F7F4F86529E4F0E946A0BA701FE
:10032000401B510BCA01052E000CAA0BBB0B80937E
:10033000D6019093D701A093D801B093D90161E081
:1003400070E06C0F7D1F600F711F8AED91E00E94BD
:100350006A0B45C08090D6019090D701A090D8013B
:10036000B090D901C40186529E4FA701BE016F5FB4
:100370007F4F0E946A0BC7010F2C000CAA0BBB0B0E
:10038000880E991EAA1EBB1E8092D6019092D7019C
:10039000A092D801B092D90122C0BC0166527E4F12
:1003A00040E450E08AE69AE10E946C0A7C01092E42
:1003B000000CAA0BBB0B4091D6015091D701609164
:1003C000D8017091D901840F951FA61FB71F809384
:1003D000D6019093D701A093D801B093D901C7015A
:1003E0000F2C000CAA0BBB0B4091CE015091CF01FA
:1003F0006091D0017091D101840F951FA61FB71F86
:100400008093CE019093CF01A093D001B093D101FE
:10041000C701C05CDF4F0FB6F894DEBF0FBECDBF83
:10042000DF91CF911F910F91FF90EF90BF90AF9010
:100430009F908F9008955C9881BB5B985B9A5C9AC3
:100440000895CF93DF9300D0CDB7DEB7411104C03C
:100450009BB19C7F9BB902C05998589A4A83698383
:10046000EADF4A816981411103C05898599A03C053
:100470009BB193609BB9862F0F900F90DF91CF9126
:10048000DACF4F925F926F927F928F929F92AF924C
:10049000BF92CF92DF92EF92FF920F931F93CF9371
:1004A000DF93CDB7DEB764970FB6F894DEBF0FBE0B
:1004B000CDBF40E452E46FE070E08AE69AE1BBD73A
:1004C0008AB18F638AB98FEF80BB8BB18C638BB994
:1004D0008BB18C7F8BB95D988FE39CE90197F1F725
:1004E00000C000005D9AAFE3BCE91197F1F700C0CE
:1004F00000001092D6011092D7011092D8011092EC
:10050000D9011092D2011092D3011092D40110920D
:10051000D5011092CE011092CF011092D00110920D
:10052000D10180E2EEE3FAE1DF011D928A95E9F75D
:100530008AE69AE11DD6892B09F4DBC2412C512CA5
:100540003201812C912C5401C12CD12C7601809147
:10055000CE019091CF01A091D001B091D101813C09
:100560009741A105B10520F5C6D369837A838B83B2
:100570009C8399DE8C01BFEFCB1ADB0AEB0AFB0AE6
:10058000BAD3DC01CB0129813A814B815C81821B8A
:10059000930BA40BB50B880E991EAA1EBB1EC80197
:1005A000110FAA0BBB0B480E591E6A1E7B1ECFCF24
:1005B000C301B201A70196010E94260B5F934F93DE
:1005C0003F932F93C501B401A70196010E94260B0A
:1005D0005F934F933F932F93FF92EF92DF92CF92CF
:1005E00087E091E09F938F930AED19E11F930F939A
:1005F0000E947A0BB8018AE69AE1E0DD88E090E09B
:100600003DDE0FB6F894DEBF0FBECDBF80913E1A1F
:10061000813609F042C080913F1A833609F03DC00F
:100620008091401A8B36C9F58091411A8E36A9F512
:100630008091441A90E0A0E0B0E0BA2FA92F982F43
:1006400088272091451A822B2091431AA22B2091B2
:10065000421AAC01BD01722B49835A836B837C83A0
:100660007F936F935F934F9387E391E09F938F9373
:100670001F930F930E947A0BB8018AE69AE1ADDDD1
:1006800084E090E0FBDD0FB6F894DEBF0FBECDBF77
:1006900080913E1A863521F00FC066E471E00EC0ED
:1006A00080913F1A873641F48091401A8D3621F4AB
:1006B0008091411A803209F165E571E08AED99E196
:1006C0000E94730B6AED79E18AE69AE164960FB6AF
:1006D000F894DEBF0FBECDBFDF91CF911F910F9178
:1006E000FF90EF90DF90CF90BF90AF909F908F9052
:1006F0007F906F905F904F9070CD63E671E08AEDD0
:1007000099E1F1D76AED79E18AE69AE166DD84E163
:1007100090E0B4DD84E090E0B1DD8091411A8F93E8
:100720008091401A8F9380913F1A8F9380913E1A47
:100730008F9381E791E09F938F931F930F93DAD765
:100740006AED79E18AE69AE148DD84E290E096DD9F
:100750000FB6F894DEBF0FBECDBF20E030E0A90198
:1007600090E4492E512C612C712C19861A861B8617
:100770001C861D821E821F821886812C912C54019A
:1007800069817A818B819C814616570668067906B5
:1007900008F06CC1730162019FEFC91AD90AE90A16
:1007A000F90A8091CE019091CF01A091D001B09132
:1007B000D101892B8A2B8B2B71F4FF92EF92DF9260
:1007C000CF928EE791E09F938F938AED99E19F936B
:1007D0008F9390D71CC1211531054105510509F4AE
:1007E00065C089D26D877E878F87988BA0E1B7E23D
:1007F00058D729EB31E040E050E028D76D857E8561
:100800008F859889620F731F841F951F6D877E8760
:100810008F87988B70D22D853E854F8558896217BA
:1008200073078407950708F041C08091CE0190912D
:10083000CF01A091D001B091D101813C9741A10598
:10084000B10540F758D2698B7A8B8B8B9C8B2BDD53
:100850008C018FEF881A980AA80AB80A4CD2DC01DA
:10086000CB0129893A894B895C89821B930BA40BA4
:10087000B50B4D815E816F817885480F591F6A1FC6
:100880007B1F4D835E836F837887C801110FAA0B8E
:10089000BB0B29853A854B855C85280F391F4A1F7C
:1008A0005B1F29873A874B875C87B4CFA7DC80938F
:1008B0003E1A8F3459F4A2DC80933F1A730162010F
:1008C00032E0C30ED11CE11CF11C14C08235B1F41E
:1008D00095DC80933F1A92DC8093401A40E0682FA9
:1008E00080913F1AAEDD7301620143E0C40ED11C5A
:1008F000E11CF11C20E030E0A901B5C0833599F47A
:100900007DDC80933F1A7ADC8093401A41E0682FA7
:1009100080913F1A96DD7301620153E0C50ED11C30
:10092000E11CF11CE7CF803559F468DC80933F1A55
:100930007301620162E0C60ED11CE11CF11CDACF2A
:100940008136B9F45BDC80933F1A58DC8093401AFF
:10095000282F30E0322F222780913F1A282B40E0A9
:1009600050E07301620173E0C70ED11CE11CF11C61
:100970007AC0823609F46EC0833609F470C090E9FB
:10098000980F903150F48F70282F30E02F5F3F4F39
:10099000032E000C440B550B66C090E8980F903165
:1009A000A8F42CDC80933F1A40E0682F8AE249DDEE
:1009B00020913E1A2F7030E040E050E07301620158
:1009C00082E0C80ED11CE11CF11C4DC0863671F4CA
:1009D0006AE871E08AED99E186D66AED79E18AE606
:1009E0009AE1FBDB8AE69AE11CD640C0FF92EF92C7
:1009F000DF92CF921F928F931F928F9386E991E09F
:100A00009F938F938AED99E19F938F9373D66AEDAD
:100A100079E18AE69AE1E1DB0FB6F894DEBF0FBE1A
:100A2000CDBF8AE69AE164960FB6F894DEBF0FBE9A
:100A3000CDBFDF91CF911F910F91FF90EF90DF908D
:100A4000CF90BF90AF909F908F907F906F905F906E
:100A50004F90E7C52FED32E040E050E004C022E7C0
:100A600033E040E050E0260137018ACE69857A857F
:100A70008B859C85A5019401E9D55F934F933F93A6
:100A80002F936D817E818F819885A5019401DED59C
:100A90005F934F933F932F93BF92AF929F928F920A
:100AA00087E091E09F938F938AED99E19F938F93D5
:100AB00021D60FB6F894DEBF0FBECDBF6AED79E147
:100AC0008AE69AE164960FB6F894DEBF0FBECDBFFA
:100AD000DF91CF911F910F91FF90EF90DF90CF901A
:100AE000BF90AF909F908F907F906F905F904F904E
:100AF00065CB64960FB6F894DEBF0FBECDBFDF9115
:100B0000CF911F910F91FF90EF90DF90CF90BF900A
:100B1000AF909F908F907F906F905F904F900895CF
:100B2000CF93DF9300D0CDB7DEB72DE029832AE045
:100B30002A83DC01ED91FC910280F381E02D42E0FB
:100B400050E0BE016F5F7F4F09950F900F90DF91CE
:100B5000CF91089524D051DB94DCFECF1DBA1092C2
:100B600068001CBC10BE1FBA10927A0010926E0072
:100B700010926F0010927000109271001092C900D4
:100B80001092BC0011B814B817B81AB81DB810BA32
:100B900012B815B818B81BB81EB811BA0895F89451
:100BA000E1E6F0E020E82083108283E084BD85BD8B
:100BB000EEE6F0E080818160808391E09093800098
:100BC00082E0809381009093B0008093B100909375
:100BD00090008093910086E880937A0020937B00B8
:100BE00010927E00A7D078940895F89484B7877FF8
:100BF00084BF8091600080618093600010926000EB
:100C000080E29EE40197F1F781E08093E00080E2CA
:100C10008093D80080E69AEE0197F1F79FDF0C945D
:100C200000FEFFCFF8949ADF80E69AEE0197F1F785
:100C30000C940000FFCF8F938FB78F9380915E1A33
:100C40008D5F8D37D0F480935E1A80915F1A8F5F2D
:100C500080935F1AD8F08091601A8F4F8093601A4A
:100C6000A8F08091611A8F4F8093611A78F080917B
:100C7000621A8F4F8093621A09C08D5780935E1A53
:100C800080915F1A8E5F80935F1A28F78091631AB4
:100C90008C5F8093631A58F08091641A8F4F809311
:100CA000641A28F08091651A8F4F8093651A8F918E
:100CB0008FBF8F911895CF92DF92EF92FF926B01C9
:100CC0007C0119D09B01C114D104E104F10471F03D
:100CD00012D0621B730B683E7340A8F381E0C81A00
:100CE000D108E108F10828513C4FEDCFFF90EF907B
:100CF000DF90CF9008950FB6F89466B515B2709155
:100D0000631A8091641A9091651A0FBE10FE05C097
:100D10006F3F19F07C5F8F4F9F4F11240024660FA7
:100D2000001C660F001C702908958091E80080FF68
:100D3000FCCF08958091D80087FF02C085FF1BC0BB
:100D400081E88093D70080EA8093D80086E189BD4E
:100D500009B400FEFDCF80E98093D8001092E00036
:100D60001092761A1092751A1092741A1092E1006D
:100D70008DE08093E20008951F920F920FB60F92BC
:100D800011240BB60F922F933F934F935F936F9362
:100D90007F938F939F93AF93BF93EF93FF93909124
:100DA000E1001092E10093FF11C01092E90081E090
:100DB0008093EB001092EC0082E28093ED0088E0DB
:100DC0008093F0001092761A1092741A92FF1DC050
:100DD0008091761A8823C9F08091691A882359F086
:100DE00081508093691A811106C084E08093E900E4
:100DF0008AE38093E8008091681A882331F081505B
:100E00008093681A811101C0F0DE90FF0CC080E170
:100E10008093E2001092761A81E08093751A80EA3E
:100E20008093D80019BC8091751A882379F094FFBB
:100E30000DC086E189BD09B400FEFDCF80E9809335
:100E4000D8008DE08093E2001092751AFF91EF9127
:100E5000BF91AF919F918F917F916F915F914F91D2
:100E60003F912F910F900BBE0F900FBE0F901F90D0
:100E700018951F920F920FB60F9211240BB60F9276
:100E8000EF92FF920F931F932F933F934F935F9394
:100E90006F937F938F939F93AF93BF93CF93EF9372
:100EA000FF931092E9008091E80083FF30C1C09168
:100EB000F1008091F100E090F100F090F1000091DC
:100EC000F1001091F1002091F1003091F10092EFCA
:100ED0009093E800863009F03FC086E0E8E9F0E052
:100EE000459155914E155F0511F0359615C0459108
:100EF00055914017510711F033960EC04591559109
:100F000084912F3F310519F010F02FEF30E02817B2
:100F100008F4822F3EEF08C0815011F7F8C0891BFA
:100F20003093E8008823A9F09091E800292F2570DC
:100F3000D9F392FDEFC0982F813208F090E2292F6B
:100F4000222369F3FA0145914093F100AF0121504A
:100F5000F7CF903249F3DEC0853049F48EEF8093AD
:100F6000E800E3DE8E2D80688093E300D3C08930F3
:100F700001F5C111CCC0E092761A1092741A109249
:100F8000691A8EEF8093E80081E0EBE5F1E0809351
:100F9000E90095919093EB00992331F0959190930E
:100FA000EC0095919093ED008F5F853081F78EE195
:100FB000A9C0883049F4C03809F0A9C0B6DE8091D4
:100FC000761A8093F1007DC0813279F4C13A09F03C
:100FD0009EC0ABDEE0E0F1E087E08E0F9081909361
:100FE000F10031968E13FACF6CC0803209F047C001
:100FF000C13209F08CC08091E80082FFFCCFE0E0B4
:10100000F1E087E08E0F9091F100908331968E137E
:10101000FACF8BEF8093E8008EEF8093E800309159
:10102000000140910101809102012091030190E0B3
:10103000A0E0B0E0DC0199278827942B832BB22B0A
:1010400086389105A105B10521F48FE08093681AD7
:1010500061C086399105A105B10509F05BC084E046
:101060008093E9009FEF8091EE00837039F09093B8
:10107000E8008091E80082FDFCCFF5CFD3DD82321D
:1010800031F4C13209F043C0E092741A04C08332D3
:1010900021F4C132E1F549DE14C0811116C045DEEC
:1010A000C23851F40093E9008091EB0085FB88275A
:1010B00080F91092E90001C080E08093F100109265
:1010C000F1008EEF8093E80025C0982F9D7F91302E
:1010D000F1F4C230E1F4EF28D1F40F779FEF900FD5
:1010E0009630A8F49EEF9093E8000093E9008330D7
:1010F00071F089E18093EB0081E090E001C0880FFE
:101100000A95EAF78093EA001092EA0003C081E2B0
:101110008093EB00FF91EF91CF91BF91AF919F91A1
:101120008F917F916F915F914F913F912F911F917F
:101130000F91FF90EF900F900BBE0F900FBE0F908E
:101140001F901895CF93DF931F92CDB7DEB76983B9
:10115000DC01ED91FC910280F381E02D41E050E053
:10116000BE016F5F7F4F09950F90DF91CF9108957A
:10117000FC018FB7F8949091761A911102C090E01B
:1011800010C093E09093E9009091F200911109C092
:101190002091E80022FFF3CF25FDF1CF2BE620932D
:1011A000E8008FBF2085318537FD03C09F3F09F0E0
:1011B0009F5F892F90E00895CF93DF93EC0188859E
:1011C000998597FF09C0E881F9810680F781E02DB4
:1011D000CE0109959987888788859985DF91CF9178
:1011E0000895FC012085318537FD07C04FEF5FEF83
:1011F00051874087C901992708959FB7F894809136
:10120000761A882369F083E08093E9002BE68091C9
:10121000E80085FD09C082FF03C02093E800F7CFF6
:101220009FBF8FEF9FEF08958091F1002091E8001C
:1012300025FD03C02BE62093E8009FBF90E00895B2
:10124000DF92EF92FF920F931F93CF93DF938C0166
:10125000EB018091761A882371F07FB7F89484E0CF
:101260008093E9008091671A882369F08091E800F3
:1012700085FD07C07FBF81E0F801828320E030E078
:10128000D1C01092671A20E030E064E080E4F82ECC
:10129000A1EFB0E09AE3E92EE3E0DE2E411551051F
:1012A00009F4BFC08091E400815F9091E80095FD52
:1012B00016C07FBF9091E400981304C081E0809332
:1012C000671A05C09091761A911104C081E0F80167
:1012D0008283A8C07FB7F8946093E900E6CF80913D
:1012E000F2009F2D981BE92FF0E04E175F0708F4DE
:1012F000942FE92FF0E04E1B5F0B2E0F3F1FE0E411
:10130000E91BE03428F4EE0FFF27E757F64F099466
:1013100080C099919C9399919C9399919C93999158
:101320009C9399919C9399919C9399919C93999159
:101330009C9399919C9399919C9399919C93999149
:101340009C9399919C9399919C9399919C93999139
:101350009C9399919C9399919C9399919C93999129
:101360009C9399919C9399919C9399919C93999119
:101370009C9399919C9399919C9399919C93999109
:101380009C9399919C9399919C9399919C939991F9
:101390009C9399919C9399919C9399919C939991E9
:1013A0009C9399919C9399919C9399919C939991D9
:1013B0009C9399919C9399919C9399919C939991C9
:1013C0009C9399919C9399919C9399919C939991B9
:1013D0009C9399919C9399919C9399919C939991A9
:1013E0009C9399919C9399919C9399919C93999199
:1013F0009C9399919C9399919C9399919C93999189
:101400009C9399919C9399919C9399919C93999178
:101410009C938091E80085FFE092E800D092691AE1
:101420003DCF7FBFC901DF91CF911F910F91FF90F9
:10143000EF90DF9008952FEF3FEFFC013187208779
:1014400079DC0FB6F89480915F1A9091601AA091A0
:10145000611AB091621A0FBE9C018091761A88239E
:1014600029F068EC70E080E090E025CC8091751A5E
:10147000882301F10FB6F89480915F1A9091601A59
:10148000A091611AB091621A0FBE4091751A44235F
:1014900089F00FB6F89440915F1A5091601A6091EC
:1014A000611A7091621A0FBE481B590B4B3F5105D0
:1014B00060F311C00FB6F89480915F1A9091601A92
:1014C000A091611AB091621A0FBE821B930B853CEA
:1014D000994008F4C2CF08958F929F92AF92BF9225
:1014E000CF92DF92EF92FF920F931F93CF93DF93F0
:1014F000EC010FB6F894C0905F1AD090601AE0909B
:10150000611AF090621A0FBE4115510509F461C0CD
:101510008885998597FD0FC0FB0180838FEF9FEF32
:10152000998788874150510909F455C06F5F7F4FF3
:10153000E1E0F0E002C0E0E0F0E013E00BE68FB79E
:10154000F8949091761A992331F01093E9009091D4
:10155000E80092FD02C08FBF39C02091F200A22F97
:10156000B0E04A175B0708F4242F362FDB019A2FCF
:10157000931B921720F49091F1009D93F8CF30E0E7
:10158000620F731F9091E80095FF0093E8008FBFF2
:10159000E20FF31F421B530B09F10FB6F894809131
:1015A0005F1A9091601AA091611AB091621A0FBEF1
:1015B0008C199D09AE09BF098B809C80AD80BE80CF
:1015C00088159905AA05BB0508F4B9CF81E08F837A
:1015D00005C080E001C081E090E001C0CF01DF9153
:1015E000CF911F910F91FF90EF90DF90CF90BF9020
:1015F000AF909F908F9008959FB7F8948091761A3E
:10160000882321F08091691A811102C09FBF08953B
:1016100084E08093E9008AE38093E8001092691ADD
:10162000F5CFEACFEAE6FAE18AE0DF011D928A957A
:10163000E9F788EE93E0A0E0B0E083839483A5838C
:10164000B68382EC91E0918380830895A1E21A2E03
:10165000AA1BBB1BFD010DC0AA1FBB1FEE1FFF1F56
:10166000A217B307E407F50720F0A21BB30BE40BA6
:10167000F50B661F771F881F991F1A9469F76095ED
:101680007095809590959B01AC01BD01CF010895A7
:10169000EE0FFF1F0024001C0BBE0790F691E02DFB
:1016A000099409D0A59F900DB49F900DA49F800D23
:1016B000911D11240895A29FB001B39FC001A39F63
:1016C000700D811D1124911DB29F700D811D11247B
:1016D000911D0895FB01DC0102C001900D92415063
:1016E0005040D8F70895FB01DC0101900D920020D5
:1016F000E1F708950F931F93CF93DF93CDB7DEB734
:101700002E970FB6F894DEBF0FBECDBF0D891E8990
:1017100086E08C831A8309838FEF9FE79E838D83F6
:10172000AE01475E5F4F6F89788DCE01019611D073
:101730002F813885F801E20FF31F10822E960FB625
:10174000F894DEBF0FBECDBFDF91CF911F910F91F7
:1017500008952F923F924F925F926F927F928F9255
:101760009F92AF92BF92CF92DF92EF92FF920F9330
:101770001F93CF93DF93CDB7DEB72C970FB6F894B6
:10178000DEBF0FBECDBF7C016B018A01FC01178259
:101790001682838181FFB0C1CE0101964C01F70111
:1017A0009381F60193FD859193FF81916F018823C9
:1017B00009F49EC1853239F493FD859193FF81919F
:1017C0006F01853221F4B70190E0C7D1E8CF512CE9
:1017D000312C20E02032A0F48B3269F030F48032DA
:1017E00059F0833269F420612CC08D3239F0803396
:1017F00039F4216026C02260246023C0286021C003
:1018000027FD27C030ED380F3A3078F426FF06C0A8
:10181000FAE05F9E300D1124532E13C08AE0389EEB
:10182000300D1124332E20620CC08E3221F426FD9F
:101830005FC1206406C08C3611F4206802C088366F
:1018400041F4F60193FD859193FF81916F01811120
:10185000C1CF982F9F7D9554933028F40C5F1F4F74
:10186000FFE3F9830DC0833631F0833771F08335A0
:1018700009F057C021C0F801808189830E5F1F4F96
:1018800044244394512C540114C03801F2E06F0EEB
:10189000711CF801A080B18026FF03C0652D70E0A7
:1018A00002C06FEF7FEFC5012C874CD12C01830163
:1018B0002C852F77222E16C03801F2E06F0E711C96
:1018C000F801A080B18026FF03C0652D70E002C042
:1018D0006FEF7FEFC5012C872AD12C012C85206862
:1018E000222E830123FC19C0832D90E0481659064F
:1018F000A0F4B70180E290E030D13A94F5CFF50141
:1019000027FC859127FE81915F01B70190E025D1E9
:1019100031103A94F1E04F1A51084114510479F70B
:10192000DEC0843611F0893631F5F80127FF07C093
:1019300060817181828193810C5F1F4F08C060813B
:101940007181072E000C880B990B0E5F1F4F2F76AD
:10195000722E97FF09C090958095709561957F4F85
:101960008F4F9F4F2068722E2AE030E0A4012DD1C6
:10197000A82EA81843C0853729F42F7EB22E2AE05E
:1019800030E025C0F22FF97FBF2E8F36C1F018F45A
:10199000883579F0ADC0803719F0883721F0A8C0BC
:1019A0002F2F2061B22EB4FE0DC08B2D8460B82E77
:1019B00009C024FF0AC09F2F9660B92E06C028E0F8
:1019C00030E005C020E130E002C020E132E0F80163
:1019D000B7FE07C060817181828193810C5F1F4FC8
:1019E00006C06081718180E090E00E5F1F4FA4010E
:1019F000ECD0A82EA818FB2DFF777F2E76FE0BC00B
:101A0000372D3E7FA51450F474FE0AC072FC08C046
:101A1000372D3E7E05C0BA2C372D03C0BA2C01C02D
:101A2000B52C34FF0DC0FE01EA0DF11D808180331D
:101A300011F4397E09C032FF06C0B394B39404C0D8
:101A4000832F867809F0B39433FD12C030FF06C0AF
:101A50005A2CB31418F4530C5B18B32CB31460F461
:101A6000B70180E290E03C8778D0B3943C85F6CF14
:101A7000B31410F43B1801C0312C34FF11C0B7016E
:101A800080E390E03C8769D03C8532FF16C031FD91
:101A900003C088E790E002C088E590E0B7010CC081
:101AA000832F867851F031FF02C08BE201C080E2C3
:101AB00037FD8DE2B70190E050D0A51430F4B701A6
:101AC00080E390E04AD05A94F8CFAA94F401EA0D4A
:101AD000F11D8081B70190E040D0A110F6CF3320F6
:101AE00009F45DCEB70180E290E037D03A94F7CFA9
:101AF000F7018681978102C08FEF9FEF2C960FB67A
:101B0000F894DEBF0FBECDBFDF91CF911F910F9133
:101B1000FF90EF90DF90CF90BF90AF909F908F900D
:101B20007F906F905F904F903F902F900895FC01B1
:101B30000590615070400110D8F7809590958E0FF8
:101B40009F1F0895FC016150704001900110D8F76B
:101B5000809590958E0F9F1F08950F931F93CF939D
:101B6000DF93FB01238121FD03C08FEF9FEF28C08E
:101B700022FF16C0468157812481358142175307C1
:101B800044F4A081B1819D012F5F3F4F31832083B9
:101B90008C93268137812F5F3F4F3783268310C078
:101BA000EB01092F182F0084F185E02D0995892B71
:101BB000E1F68E819F8101969F838E83812F902FE6
:101BC000DF91CF911F910F910895FA01AA27283034
:101BD00051F1203181F1E8946F936E7F6E5F7F4FFA
:101BE0008F4F9F4FAF4FB1E03ED0B4E03CD0670F76
:101BF000781F891F9A1FA11D680F791F8A1F911DC9
:101C0000A11D6A0F711D811D911DA11D20D009F418
:101C100068943F912AE0269F11243019305D31935A
:101C2000DEF6CF010895462F4770405D4193B3E043
:101C30000FD0C9F7F6CF462F4F70405D4A3318F0EA
:101C4000495D31FD4052419302D0A9F7EACFB4E09B
:101C5000A6959795879577956795BA95C9F7009753
:101C60006105710508959B01AC010A2E06945795F4
:101C7000479537952795BA95C9F7620F731F841F4B
:0A1C8000951FA01D0895F894FFCFF2
:101C8A0000E1000000000874696D65733A20256C54
:101C9A007520617665726167652074696D653A20A1
:101CAA00256C75206176657261676520726561646D
:101CBA003A20256C750A0066696C652073697A6535
:101CCA003A20256C64006E6F2061636B202D3E20E4
:101CDA0065786974006964656E74206661696C650B
:101CEA006421006964656E74207061737365642190
:101CFA000073616D706C65733A20256C750073749E
:101D0A00617276656440256C6400656E64206F6656
:101D1A00206461746100756E62656B616E6E7465D4
:101D2A0073207A65696368656E3A20307825782071
:101D3A002F20256420706F733A20256C6400000000
:0E1D4A000000A2082009B808F108DC08110BFF
:00000001FF
