:10000000B3C00000DAC00000D8C00000D6C00000B5
:10001000D4C00000D2C00000D0C00000CEC000009C
:10002000CCC00000CAC0000005C6000080C60000A9
:10003000C4C00000C2C00000C0C00000BEC00000BC
:10004000BCC00000BAC00000B8C00000B6C00000CC
:10005000B4C00000B2C00000B0C000004AC500003B
:10006000ACC00000AAC00000A8C00000A6C00000EC
:10007000A4C00000A2C00000A0C000009EC00000FC
:100080009CC000009AC0000098C0000096C000000C
:1000900094C0000092C0000000010000490112005D
:1000A00002000006014300030000020104010309ED
:1000B00004E8001802030904D0001603030904C26F
:1000C000000C0C0331003200330034003500000016
:1000D00016035500530042002000530065007200D3
:1000E000690061006C0000001803540065006500A1
:1000F0006E00730079006400750069006E006F0087
:1001000000000403090409024300020100C032098F
:100110000400000102020100052400100105240171
:1001200000010424020605240600010705820308D5
:10013000004009040100020A000000070503024014
:1001400000000705840240000012010002020000C6
:1001500020C01683040001010203010001C1020155
:10016000803601813600700A11241FBECFEFD0E225
:10017000DEBFCDBF11E0A0E0B1E0E0E1FEE100E0D4
:100180000BBF02C007900D92AE39B107D9F72EE12F
:10019000AEE9B1E001C01D92A434B207E1F710E06E
:1001A000C4EBD0E004C02197FE010E94240CC33BA5
:1001B000D107C9F72DD40C94060F22CF0F931F93AC
:1001C000CF93DF93EC01FB0101900020E9F7319719
:1001D000AF01461B570BE881F9810280F381E02DC6
:1001E00009958C01CE01F4D3800F911FDF91CF913F
:1001F0001F910F91089508950F931F934091A201AD
:100200005091A3016091A4017091A501FA01E655F6
:10021000FE4F808100919E0110919F012091A001CD
:100220003091A101015011092109310900939E016A
:1002300010939F012093A0013093A1014F5F5F4F66
:100240006F4F7F4F41159CE159076105710549F0DA
:100250004093A2015093A3016093A4017093A50160
:1002600008C01092A2011092A3011092A401109252
:10027000A5011F910F9108950F931F93CF93DF93C3
:100280008C01CEE0DEE1CE018E509E4180179107B9
:100290001CF4B2DF8993F7CFDF91CF911F910F91BB
:1002A00008958F929F92AF92BF92EF92FF920F9319
:1002B0001F93CF93DF93CDB7DEB7C054D1090FB6EC
:1002C000F894DEBF0FBECDBF8091A6019091A7012B
:1002D000A091A801B091A90100E01CE1081B190B35
:1002E000003211050CF057C040E250E0BE016F5FD4
:1002F0007F4F8AE39EE10E94CA097C010817190713
:100300003CF58091A6019091A701A801BE016F5F05
:100310007F4F86559E4F0E942D0CA701401B510B0D
:10032000CA01052E000CAA0BBB0B8093A60190936B
:10033000A701A093A801B093A90161E070E06C0F40
:100340007D1F600F711F8AEA91E00E942D0C44C04E
:100350008090A6019090A701A090A801B090A9015B
:10036000C40186559E4FA701BE016F5F7F4F0E945B
:100370002D0CC7010F2C000CAA0BBB0B880E991E6D
:10038000AA1EBB1E8092A6019092A701A092A8016E
:10039000B092A90121C0BC0166557E4F40E250E0F9
:1003A0008AE39EE1F7D77C01092E000CAA0BBB0B58
:1003B0004091A6015091A7016091A8017091A901F7
:1003C000840F951FA61FB71F8093A6019093A701C6
:1003D000A093A801B093A901C7010F2C000CAA0B90
:1003E000BB0B40919E0150919F016091A0017091C3
:1003F000A101840F951FA61FB71F80939E019093A4
:100400009F01A093A001B093A101C701C05CDF4F81
:100410000FB6F894DEBF0FBECDBFDF91CF911F9115
:100420000F91FF90EF90BF90AF909F908F900895A5
:100430005C9881BB5B985B9A5C9A0895CF93DF933D
:1004400000D0CDB7DEB7411104C09BB19C7F9BB9F2
:1004500002C05998589A4A836983EADF4A816981C0
:10046000411103C05898599A03C09BB193609BB93E
:10047000862F0F900F90DF91CF91DACF4F925F923E
:100480006F927F928F929F92AF92BF92CF92DF92A4
:10049000EF92FF920F931F93CF93DF93CDB7DEB709
:1004A00028970FB6F894DEBF0FBECDBF40E452E4EC
:1004B0006FE070E08AE39EE11CD740E050E0BA01B3
:1004C0008AE39EE19FD28AB18F638AB98FEF80BBA6
:1004D0008BB18C638BB98BB18C7F8BB95D988FE3BB
:1004E0009CE90197F1F700C000005D9AAFE3BCE919
:1004F0001197F1F700C000001092A6011092A70119
:100500001092A8011092A9011092A2011092A301C9
:100510001092A4011092A50110929E0110929F01C9
:100520001092A0011092A10180E2EEE0FEE1DF0155
:100530001D928A95E9F78AE39EE178D5892B51F4DB
:10054000BFEFE7EAF1E6B150E040F040E1F700C06C
:10055000000027C2412C512C3201812C912C5401D6
:10056000C12CD12C760180919E0190919F01A09188
:10057000A001B091A101813E9B41A105B10530F5DB
:1005800018D369837A838B839C838BDE8C012FEF56
:10059000C21AD20AE20AF20A0CD3DC01CB01298189
:1005A0003A814B815C81821B930BA40BB50B880EA7
:1005B000991EAA1EBB1EC801012E000CAA0BBB0B64
:1005C000480E591E6A1E7B1E012B69F6C301B2013B
:1005D000A70196010E94020C5F934F933F932F93C4
:1005E000C501B401A70196010E94020C5F934F93CD
:1005F0003F932F93FF92EF92DF92CF9287E091E0AB
:100600009F938F930AEA1DE11F930F930E943D0C65
:10061000B8018AE39EE1D2DD84E090E02DDE0FB6E2
:10062000F894DEBF0FBECDBF80910E1E863561F4FB
:1006300080910F1E873641F48091101E8D3621F473
:100640008091111E803209F166E371E08AEA9DE132
:100650000E94360C6AEA7DE18AE39EE128960FB695
:10066000F894DEBF0FBECDBFDF91CF911F910F91E8
:10067000FF90EF90DF90CF90BF90AF909F908F90C2
:100680007F906F905F904F9099CD64E471E08AEA1B
:100690009DE10E94360C6AEA7DE18AE39EE18EDDEF
:1006A00084E190E0E9DD84E090E0E6DD80910E1EDB
:1006B00090910F1EA091101EB091111E89839A83F4
:1006C000AB83BC83BF93AF939F938F9382E591E0FD
:1006D0009F938F931F930F930E943D0C6AEA7DE1D5
:1006E0008AE39EE16BDD84E290E0C6DD0FB6F8940C
:1006F00080912F1E9091301EA091311EB091321E1C
:100700000FBE57D26D837E838F8398870FB6F89480
:10071000DEBF0FBECDBF812C912C5401C12CD12C3A
:10072000760189819A81AB81BC81C816D906EA0617
:10073000FB0608F036C180919E0190919F01A09127
:10074000A001B091A1010497A105B10540F50FB634
:10075000F89440902F1E5090301E6090311E709083
:10076000321E0FBE8AE39EE161D4892B99F40FB645
:10077000F89480912F1E9091301EA091311EB0915F
:10078000321E0FBE84199509A609B7094497A10521
:10079000B10540F386DD181619060CF0EAC0811485
:1007A0009104A104B10491F1C80CD91CEA1CFB1CF2
:1007B0006D817E818F8198850CD72B013C01C7010B
:1007C000B60107D729EE37E645EB51E4B8D79B01D0
:1007D000AC01C301B20199D62B013C01EAD1F9D693
:1007E0009B01AC01C301B201A6D718167CF480911D
:1007F0009E0190919F01A091A001B091A101813E25
:100800009B41A105B10550F74CDDE8CFF5DC8093A5
:100810000E1E823609F4A6C000F5823509F44AC0DE
:1008200038F48F3409F45DC0803509F45AC06AC0C9
:10083000833509F44EC0813609F064C0DDDC809355
:100840000F1EDADC8093101E482F50E0542F4427EF
:1008500080910F1E482B4A0152C08038B0F4803777
:1008600008F043C08336F9F0863609F04BC067E6DE
:1008700071E08AEA9DE1FAD76AEA7DE18AE39EE1C6
:100880009DDC8AE39EE12BD620C0803908F03AC077
:10089000B3DC40E0682F8AE2D1DD40910E1E4F703C
:1008A000842E912C2CC022E7822E23E0922EA12CA4
:1008B000B12C37CFA1DC80930F1E9EDC8093101EDD
:1008C00040E0682F80910F1EB9DD812C912C5401DE
:1008D00028CF92DC80930F1E8FDC8093101E41E0A6
:1008E000F0CF8ADC80930F1EF0CF8F70482F50E03E
:1008F0004F5F5F4F4A01550FAA08BB0812CFA12CCA
:10090000B12C0FCF1F928F931F928F9383E791E0AB
:100910009F938F938AEA9DE19F938F93AED76AEA64
:100920007DE18AE39EE14ADC0FB6F894DEBF0FBE9C
:10093000CDBF8AE39EE128960FB6F894DEBF0FBEC6
:10094000CDBFDF91CF911F910F91FF90EF90DF907E
:10095000CF90BF90AF909F908F907F906F905F905F
:100960004F90BDC58FED882E82E0982EA12CB12C22
:10097000D8CE80919E0190919F01A091A001B0914D
:10098000A101892B8A2B8B2B09F009CF6FE571E030
:100990008AEA9DE16BD76AEA7DE18AE39EE10EDC9B
:1009A000C8CF28960FB6F894DEBF0FBECDBFDF913B
:1009B000CF911F910F91FF90EF90DF90CF90BF905C
:1009C000AF909F908F907F906F905F904F90089521
:1009D000CF93DF9300D0CDB7DEB72DE029832AE097
:1009E0002A83DC01ED91FC910280F381E02D42E04D
:1009F00050E0BE016F5F7F4F09950F900F90DF9120
:100A0000CF910895FC0143835483658376830895D1
:100A100024D0F1DB33DDFECF1DBA109268001CBC80
:100A200010BE1FBA10927A0010926E0010926F00E2
:100A300010927000109271001092C9001092BC00C8
:100A400011B814B817B81AB81DB810BA12B815B83A
:100A500018B81BB81EB811BA0895F894E1E6F0E092
:100A600020E82083108283E084BD85BDEEE6F0E0BF
:100A700080818160808391E09093800082E0809308
:100A800081009093B0008093B10090939000809388
:100A9000910086E880937A0020937B0010927E007C
:100AA000A7D078940895F89484B7877F84BF809105
:100AB00060008061809360001092600080E29EE49C
:100AC0000197F1F781E08093E00080E28093D80005
:100AD00080E69AEE0197F1F79FDF0C9400FEFFCFBE
:100AE000F8949ADF80E69AEE0197F1F70C940000F3
:100AF000FFCF8F938FB78F9380912E1E8D5F8D3791
:100B0000D0F480932E1E80912F1E8F5F80932F1E16
:100B1000D8F08091301E8F4F8093301EA8F08091C6
:100B2000311E8F4F8093311E78F08091321E8F4F8F
:100B30008093321E09C08D5780932E1E80912F1EE8
:100B40008E5F80932F1E28F78091331E8C5F8093D9
:100B5000331E58F08091341E8F4F8093341E28F03E
:100B60008091351E8F4F8093351E8F918FBF8F914F
:100B70001895CF92DF92EF92FF926B017C0119D012
:100B80009B01C114D104E104F10471F012D0621B85
:100B9000730B683E7340A8F381E0C81AD108E108DE
:100BA000F10828513C4FEDCFFF90EF90DF90CF90B0
:100BB00008950FB6F89466B515B27091331E809102
:100BC000341E9091351E0FBE10FE05C06F3F19F008
:100BD0007C5F8F4F9F4F11240024660F001C660F0F
:100BE000001C702908958091E80080FFFCCF0895D3
:100BF0008091D80087FF02C085FF1BC081E88093E9
:100C0000D70080EA8093D80086E189BD09B400FE50
:100C1000FDCF80E98093D8001092E0001092461E2C
:100C20001092451E1092441E1092E1008DE08093B8
:100C3000E20008951F920F920FB60F9211240BB687
:100C40000F922F933F934F935F936F937F938F9365
:100C50009F93AF93BF93EF93FF939091E100109216
:100C6000E10093FF11C01092E90081E08093EB0056
:100C70001092EC0082E28093ED0088E08093F00017
:100C80001092461E1092441E92FF1DC08091461E77
:100C90008823C9F08091391E882359F081508093B0
:100CA000391E811106C084E08093E9008AE38093B5
:100CB000E8008091381E882331F081508093381EDF
:100CC000811101C0F0DE90FF0CC080E18093E20052
:100CD0001092461E81E08093451E80EA8093D800E2
:100CE00019BC8091451E882379F094FF0DC086E1E0
:100CF00089BD09B400FEFDCF80E98093D8008DE066
:100D00008093E2001092451EFF91EF91BF91AF9149
:100D10009F918F917F916F915F914F913F912F9113
:100D20000F900BBE0F900FBE0F901F9018951F9243
:100D30000F920FB60F9211240BB60F92EF92FF9203
:100D40000F931F932F933F934F935F936F937F93D3
:100D50008F939F93AF93BF93CF93EF93FF93109293
:100D6000E9008091E80083FF30C1C091F1008091DB
:100D7000F100E090F100F090F1000091F10010918D
:100D8000F1002091F1003091F10092EF9093E80092
:100D9000863009F03FC086E0E8E9F0E045915591E2
:100DA0004E155F0511F0359615C0459155914017C8
:100DB000510711F033960EC04591559184912F3F04
:100DC000310519F010F02FEF30E0281708F4822FCA
:100DD0003EEF08C0815011F7F8C0891B3093E8003E
:100DE0008823A9F09091E800292F2570D9F392FD6E
:100DF000EFC0982F813208F090E2292F222369F367
:100E0000FA0145914093F100AF012150F7CF9032A4
:100E100049F3DEC0853049F48EEF8093E800E3DECD
:100E20008E2D80688093E300D3C0893001F5C11115
:100E3000CCC0E092461E1092441E1092391E8EEFD6
:100E40008093E80081E0EBE5F1E08093E900959183
:100E50009093EB00992331F095919093EC0095914C
:100E60009093ED008F5F853081F78EE1A9C08830C7
:100E700049F4C03809F0A9C0B6DE8091461E8093BF
:100E8000F1007DC0813279F4C13A09F09EC0ABDE39
:100E9000E0E0F1E087E08E0F90819093F1003196D1
:100EA0008E13FACF6CC0803209F047C0C13209F00E
:100EB0008CC08091E80082FFFCCFE0E0F1E087E0A9
:100EC0008E0F9091F100908331968E13FACF8BEFB5
:100ED0008093E8008EEF8093E8003091000140910C
:100EE0000101809102012091030190E0A0E0B0E0B7
:100EF000DC0199278827942B832BB22B8638910508
:100F0000A105B10521F48FE08093381E61C08639B8
:100F10009105A105B10509F05BC084E08093E9006B
:100F20009FEF8091EE00837039F09093E8008091FC
:100F3000E80082FDFCCFF5CFD3DD823231F4C1323F
:100F400009F043C0E092441E04C0833221F4C13250
:100F5000E1F549DE14C0811116C045DEC23851F4F6
:100F60000093E9008091EB0085FB882780F91092BF
:100F7000E90001C080E08093F1001092F1008EEF53
:100F80008093E80025C0982F9D7F9130F1F4C23006
:100F9000E1F4EF28D1F40F779FEF900F9630A8F48B
:100FA0009EEF9093E8000093E900833071F089E1AF
:100FB0008093EB0081E090E001C0880F0A95EAF78A
:100FC0008093EA001092EA0003C081E28093EB0074
:100FD000FF91EF91CF91BF91AF919F918F917F91B1
:100FE0006F915F914F913F912F911F910F91FF90C2
:100FF000EF900F900BBE0F900FBE0F901F901895A3
:10100000CF93DF931F92CDB7DEB76983DC01ED91FB
:10101000FC910280F381E02D41E050E0BE016F5F62
:101020007F4F09950F90DF91CF910895FC018FB705
:10103000F8949091461E911102C090E010C093E088
:101040009093E9009091F200911109C02091E8007D
:1010500022FFF3CF25FDF1CF2BE62093E8008FBFD1
:101060002085318537FD03C09F3F09F09F5F892FA1
:1010700090E00895CF93DF93EC018885998597FFE1
:1010800009C0E881F9810680F781E02DCE0109953C
:101090009987888788859985DF91CF910895FC018C
:1010A0002085318537FD07C04FEF5FEF51874087BF
:1010B000C901992708959FB7F8948091461E882307
:1010C00069F083E08093E9002BE68091E80085FDDC
:1010D00009C082FF03C02093E800F7CF9FBF8FEFC6
:1010E0009FEF08958091F1002091E80025FD03C055
:1010F0002BE62093E8009FBF90E00895DF92EF92E7
:10110000FF920F931F93CF93DF938C01EB0180919C
:10111000461E882371F07FB7F89484E08093E9003D
:101120008091371E882369F08091E80085FD07C013
:101130007FBF81E0F801828320E030E0D1C01092CF
:10114000371E20E030E064E080E4F82EA1EFB0E04C
:101150009AE3E92EE3E0DE2E4115510509F4BFC004
:101160008091E400815F9091E80095FD16C07FBFFB
:101170009091E400981304C081E08093371E05C06D
:101180009091461E911104C081E0F8018283A8C0AD
:101190007FB7F8946093E900E6CF8091F2009F2D2D
:1011A000981BE92FF0E04E175F0708F4942FE92F02
:1011B000F0E04E1B5F0B2E0F3F1FE0E4E91BE03415
:1011C00028F4EE0FFF27E951F74F099480C0999159
:1011D0009C9399919C9399919C9399919C939991AB
:1011E0009C9399919C9399919C9399919C9399919B
:1011F0009C9399919C9399919C9399919C9399918B
:101200009C9399919C9399919C9399919C9399917A
:101210009C9399919C9399919C9399919C9399916A
:101220009C9399919C9399919C9399919C9399915A
:101230009C9399919C9399919C9399919C9399914A
:101240009C9399919C9399919C9399919C9399913A
:101250009C9399919C9399919C9399919C9399912A
:101260009C9399919C9399919C9399919C9399911A
:101270009C9399919C9399919C9399919C9399910A
:101280009C9399919C9399919C9399919C939991FA
:101290009C9399919C9399919C9399919C939991EA
:1012A0009C9399919C9399919C9399919C939991DA
:1012B0009C9399919C9399919C9399919C939991CA
:1012C0009C9399919C9399919C9399919C938091D3
:1012D000E80085FFE092E800D092391E3DCF7FBF45
:1012E000C901DF91CF911F910F91FF90EF90DF9097
:1012F00008952FEF3FEFFC013187208779DC0FB68F
:10130000F89480912F1E9091301EA091311EB091C3
:10131000321E0FBE9C018091461E882329F068EC86
:1013200070E080E090E025CC8091451E882301F19B
:101330000FB6F89480912F1E9091301EA091311E0F
:10134000B091321E0FBE4091451E442389F00FB666
:10135000F89440912F1E5091301E6091311E709173
:10136000321E0FBE481B590B4B3F510560F311C095
:101370000FB6F89480912F1E9091301EA091311ECF
:10138000B091321E0FBE821B930B853C994008F42E
:10139000C2CF08958F929F92AF92BF92CF92DF9269
:1013A000EF92FF920F931F93CF93DF93EC010FB651
:1013B000F894C0902F1ED090301EE090311EF09017
:1013C000321E0FBE4115510509F461C0888599850B
:1013D00097FD0FC0FB0180838FEF9FEF9987888770
:1013E0004150510909F455C06F5F7F4FE1E0F0E0D3
:1013F00002C0E0E0F0E013E00BE68FB7F8949091C4
:10140000461E992331F01093E9009091E80092FD77
:1014100002C08FBF39C02091F200A22FB0E04A175E
:101420005B0708F4242F362FDB019A2F931B9217AA
:1014300020F49091F1009D93F8CF30E0620F731F7C
:101440009091E80095FF0093E8008FBFE20FF31F33
:10145000421B530B09F10FB6F89480912F1E909107
:10146000301EA091311EB091321E0FBE8C199D0905
:10147000AE09BF098B809C80AD80BE808815990520
:10148000AA05BB0508F4B9CF81E08F8305C080E0D1
:1014900001C081E090E001C0CF01DF91CF911F91A9
:1014A0000F91FF90EF90DF90CF90BF90AF909F9003
:1014B0008F9008959FB7F8948091461E882321F05D
:1014C0008091391E811102C09FBF089584E08093EE
:1014D000E9008AE38093E8001092391EF5CFEACF45
:1014E000EAE3FEE18AE0DF011D928A95E9F788EEE2
:1014F00093E0A0E0B0E083839483A583B68381E981
:1015000091E09183808308955058BB27AA270ED07D
:10151000D8C0C9D030F0CED020F031F49F3F11F4C4
:101520001EF4BEC00EF4E095E7FBB4C0E92FDAD09C
:1015300080F3BA17620773078407950718F071F4F0
:101540009EF5F2C00EF4E0950B2EBA2FA02D0B01E4
:10155000B90190010C01CA01A0011124FF27591BF8
:1015600099F0593F50F4503E68F11A16F040A22FFE
:10157000232F342F4427585FF3CF4695379527956F
:10158000A795F0405395C9F77EF41F16BA0B620B6E
:10159000730B840BBAF09150A1F0FF0FBB1F661FB5
:1015A000771F881FC2F70EC0BA0F621F731F841FF8
:1015B00048F4879577956795B795F7959E3F08F01E
:1015C000B3CF9395880F08F09927EE0F97958795DD
:1015D0000895E89409C097FB3EF490958095709526
:1015E00061957F4F8F4F9F4F9923A9F0F92F96E96F
:1015F000BB279395F695879577956795B795F111E4
:10160000F8CFFAF4BB0F11F460FF1BC06F5F7F4F80
:101610008F4F9F4F16C0882311F096E911C0772392
:1016200021F09EE8872F762F05C0662371F096E89B
:10163000862F70E060E02AF09A95660F771F881F6A
:10164000DAF7880F9695879597F90895990F00080E
:10165000550FAA0BE0E8FEEF16161706E807F90784
:10166000C0F012161306E407F50798F0621B730B1F
:10167000840B950B39F40A2661F0232B242B252BA0
:1016800021F408950A2609F4A140A6958FEF811D43
:10169000811D089597F99F6780E870E060E00895E4
:1016A0009FEF80EC089500240A941616170618067A
:1016B0000906089500240A94121613061406050656
:1016C0000895092E0394000C11F4882352F0BB0FE7
:1016D00040F4BF2B11F460FF04C06F5F7F4F8F4F4A
:1016E0009F4F089557FD9058440F551F59F05F3F85
:1016F00071F04795880F97FB991F61F09F3F79F034
:1017000087950895121613061406551FF2CF4695B5
:10171000F1DF08C0161617061806991FF1CF869537
:101720007105610508940895E894BB27662777271B
:10173000CB0197F908958ADF08F48FEF08950BD055
:10174000C0CFB1DF28F0B6DF18F0952309F0A2CFA3
:10175000A7CF1124EACFC6DFA0F3959FD1F3950F51
:1017600050E0551F629FF001729FBB27F00DB11D25
:10177000639FAA27F00DB11DAA1F649F6627B00DB5
:10178000A11D661F829F2227B00DA11D621F739F9E
:10179000B00DA11D621F839FA00D611D221F749FAC
:1017A0003327A00D611D231F849F600D211D822FF3
:1017B000762F6A2F11249F5750408AF0E1F088233A
:1017C0004AF0EE0FFF1FBB1F661F771F881F915047
:1017D0005040A9F79E3F510570F05CCFA6CF5F3F08
:1017E000ECF3983EDCF3869577956795B795F7957A
:1017F000E7959F5FC1F7FE2B880F911D9695879502
:1018000097F90895A1E21A2EAA1BBB1BFD010DC07A
:10181000AA1FBB1FEE1FFF1FA217B307E407F507A0
:1018200020F0A21BB30BE40BF50B661F771F881F7C
:10183000991F1A9469F760957095809590959B0112
:10184000AC01BD01CF010895EE0FFF1F0024001C65
:101850000BBE0790F691E02D0994FB01DC0102C05C
:1018600001900D9241505040D8F70895FB01DC01E2
:1018700001900D920020E1F708950F931F93CF93ED
:10188000DF93CDB7DEB72E970FB6F894DEBF0FBE4D
:10189000CDBF0D891E8986E08C831A8309838FEF63
:1018A0009FE79E838D83AE01475E5F4F6F89788D82
:1018B000CE01019611D02F813885F801E20FF31F78
:1018C00010822E960FB6F894DEBF0FBECDBFDF910B
:1018D000CF911F910F9108952F923F924F925F9257
:1018E0006F927F928F929F92AF92BF92CF92DF9230
:1018F000EF92FF920F931F93CF93DF93CDB7DEB795
:101900002C970FB6F894DEBF0FBECDBF7C016B01E4
:101910008A01FC0117821682838181FFB0C1CE014A
:1019200001964C01F7019381F60193FD859193FF98
:1019300081916F01882309F49EC1853239F493FDAA
:10194000859193FF81916F01853221F4B70190E079
:10195000C7D1E8CF512C312C20E02032A0F48B32BB
:1019600069F030F4803259F0833269F420612CC080
:101970008D3239F0803339F4216026C02260246032
:1019800023C0286021C027FD27C030ED380F3A3032
:1019900078F426FF06C0FAE05F9E300D1124532E26
:1019A00013C08AE0389E300D1124332E20620CC003
:1019B0008E3221F426FD5FC1206406C08C3611F4FE
:1019C000206802C0883641F4F60193FD859193FFAB
:1019D00081916F018111C1CF982F9F7D95549330D4
:1019E00028F40C5F1F4FFFE3F9830DC0833631F0FD
:1019F000833771F0833509F057C021C0F801808129
:101A000089830E5F1F4F44244394512C540114C00A
:101A10003801F2E06F0E711CF801A080B18026FF42
:101A200003C0652D70E002C06FEF7FEFC5012C870A
:101A30004CD12C0183012C852F77222E16C0380122
:101A4000F2E06F0E711CF801A080B18026FF03C088
:101A5000652D70E002C06FEF7FEFC5012C872AD1A2
:101A60002C012C852068222E830123FC19C0832D94
:101A700090E048165906A0F4B70180E290E030D11A
:101A80003A94F5CFF50127FC859127FE81915F01FE
:101A9000B70190E025D131103A94F1E04F1A510886
:101AA0004114510479F7DEC0843611F0893631F5DE
:101AB000F80127FF07C060817181828193810C5FEB
:101AC0001F4F08C060817181072E000C880B990B95
:101AD0000E5F1F4F2F76722E97FF09C0909580954D
:101AE000709561957F4F8F4F9F4F2068722E2AE02F
:101AF00030E0A4012DD1A82EA81843C0853729F4C1
:101B00002F7EB22E2AE030E025C0F22FF97FBF2EC3
:101B10008F36C1F018F4883579F0ADC0803719F0F0
:101B2000883721F0A8C02F2F2061B22EB4FE0DC03F
:101B30008B2D8460B82E09C024FF0AC09F2F9660A9
:101B4000B92E06C028E030E005C020E130E002C038
:101B500020E132E0F801B7FE07C060817181828127
:101B600093810C5F1F4F06C06081718180E090E01F
:101B70000E5F1F4FA401ECD0A82EA818FB2DFF77F5
:101B80007F2E76FE0BC0372D3E7FA51450F474FED9
:101B90000AC072FC08C0372D3E7E05C0BA2C372D16
:101BA00003C0BA2C01C0B52C34FF0DC0FE01EA0DF4
:101BB000F11D8081803311F4397E09C032FF06C0E7
:101BC000B394B39404C0832F867809F0B39433FDA3
:101BD00012C030FF06C05A2CB31418F4530C5B1813
:101BE000B32CB31460F4B70180E290E03C8778D066
:101BF000B3943C85F6CFB31410F43B1801C0312CDC
:101C000034FF11C0B70180E390E03C8769D03C8588
:101C100032FF16C031FD03C088E790E002C088E5BE
:101C200090E0B7010CC0832F867851F031FF02C0DD
:101C30008BE201C080E237FD8DE2B70190E050D029
:101C4000A51430F4B70180E390E04AD05A94F8CF5D
:101C5000AA94F401EA0DF11D8081B70190E040D013
:101C6000A110F6CF332009F45DCEB70180E290E0F9
:101C700037D03A94F7CFF7018681978102C08FEF72
:101C80009FEF2C960FB6F894DEBF0FBECDBFDF914D
:101C9000CF911F910F91FF90EF90DF90CF90BF9069
:101CA000AF909F908F907F906F905F904F903F90FC
:101CB0002F900895FC010590615070400110D8F7F5
:101CC000809590958E0F9F1F0895FC016150704084
:101CD00001900110D8F7809590958E0F9F1F089561
:101CE0000F931F93CF93DF93FB01238121FD03C04B
:101CF0008FEF9FEF28C022FF16C0468157812481B5
:101D000035814217530744F4A081B1819D012F5FB3
:101D10003F4F318320838C93268137812F5F3F4F44
:101D20003783268310C0EB01092F182F0084F1851B
:101D3000E02D0995892BE1F68E819F8101969F8385
:101D40008E83812F902FDF91CF911F910F91089556
:101D5000FA01AA27283051F1203181F1E8946F93DC
:101D60006E7F6E5F7F4F8F4F9F4FAF4FB1E03ED082
:101D7000B4E03CD0670F781F891F9A1FA11D680F20
:101D8000791F8A1F911DA11D6A0F711D811D911D53
:101D9000A11D20D009F468943F912AE0269F1124C8
:101DA0003019305D3193DEF6CF010895462F47702C
:101DB000405D4193B3E00FD0C9F7F6CF462F4F7087
:101DC000405D4A3318F0495D31FD4052419302D0E5
:101DD000A9F7EACFB4E0A69597958795779567958B
:101DE000BA95C9F700976105710508959B01AC018B
:101DF0000A2E06945795479537952795BA95C9F7B2
:101E0000620F731F841F951FA01D0895F894FFCFC4
:101E100000E1000000000874696D65733A20256CCC
:101E20007520617665726167652074696D653A2019
:101E3000256C7520617665726167652072656164E5
:101E40003A20256C75006964656E74206661696C62
:101E5000656421006964656E7420706173736564E4
:101E6000210073616D706C65733A20256C75007389
:101E700074617276656400656E64206F66206461CB
:101E8000746100756E6B6F776E20636F6D6D616E40
:101E9000643A2030782578202F2025640000000047
:0E1EA0000000087E0816084F083A086F0A0076
:00000001FF
